{
  "_format": "hh-sol-artifact-1",
  "contractName": "Daopia",
  "sourceName": "contracts/Daopia.sol",
  "abi": [
    {
      "inputs": [],
      "stateMutability": "nonpayable",
      "type": "constructor"
    },
    {
      "inputs": [
        {
          "internalType": "uint256",
          "name": "chainid",
          "type": "uint256"
        }
      ],
      "name": "ChainNotSupported",
      "type": "error"
    },
    {
      "inputs": [
        {
          "internalType": "address",
          "name": "contributer",
          "type": "address"
        },
        {
          "internalType": "uint256",
          "name": "newDiscount",
          "type": "uint256"
        }
      ],
      "name": "applyDiscount",
      "outputs": [],
      "stateMutability": "nonpayable",
      "type": "function"
    },
    {
      "inputs": [
        {
          "internalType": "string",
          "name": "_cid",
          "type": "string"
        },
        {
          "internalType": "uint256",
          "name": "id",
          "type": "uint256"
        },
        {
          "internalType": "uint256",
          "name": "jobType",
          "type": "uint256"
        }
      ],
      "name": "approveProposal",
      "outputs": [],
      "stateMutability": "nonpayable",
      "type": "function"
    },
    {
      "inputs": [
        {
          "internalType": "address",
          "name": "dao",
          "type": "address"
        },
        {
          "internalType": "string",
          "name": "cid",
          "type": "string"
        },
        {
          "internalType": "uint256",
          "name": "id",
          "type": "uint256"
        }
      ],
      "name": "changeCidOnProposalTable",
      "outputs": [],
      "stateMutability": "nonpayable",
      "type": "function"
    },
    {
      "inputs": [
        {
          "components": [
            {
              "internalType": "uint256",
              "name": "period",
              "type": "uint256"
            },
            {
              "internalType": "uint256",
              "name": "price",
              "type": "uint256"
            },
            {
              "internalType": "bool",
              "name": "isBalanceLocked",
              "type": "bool"
            },
            {
              "internalType": "enum Daopia.PaymentType",
              "name": "paymentType",
              "type": "uint8"
            },
            {
              "internalType": "address payable",
              "name": "paymentContract",
              "type": "address"
            },
            {
              "internalType": "address payable",
              "name": "vault",
              "type": "address"
            },
            {
              "internalType": "enum Daopia.RegistrationStatus",
              "name": "registrationStatus",
              "type": "uint8"
            }
          ],
          "internalType": "struct Daopia.DaoDetails",
          "name": "details",
          "type": "tuple"
        }
      ],
      "name": "changeDaoDetails",
      "outputs": [],
      "stateMutability": "nonpayable",
      "type": "function"
    },
    {
      "inputs": [
        {
          "internalType": "uint256",
          "name": "newPeriod",
          "type": "uint256"
        }
      ],
      "name": "changePeriod",
      "outputs": [],
      "stateMutability": "nonpayable",
      "type": "function"
    },
    {
      "inputs": [
        {
          "internalType": "uint256",
          "name": "newPrice",
          "type": "uint256"
        }
      ],
      "name": "changePrice",
      "outputs": [],
      "stateMutability": "nonpayable",
      "type": "function"
    },
    {
      "inputs": [
        {
          "internalType": "enum Daopia.RegistrationStatus",
          "name": "status",
          "type": "uint8"
        }
      ],
      "name": "changeRegistration",
      "outputs": [],
      "stateMutability": "nonpayable",
      "type": "function"
    },
    {
      "inputs": [
        {
          "internalType": "address",
          "name": "",
          "type": "address"
        }
      ],
      "name": "daoBalances",
      "outputs": [
        {
          "internalType": "uint256",
          "name": "",
          "type": "uint256"
        }
      ],
      "stateMutability": "view",
      "type": "function"
    },
    {
      "inputs": [
        {
          "internalType": "address",
          "name": "",
          "type": "address"
        }
      ],
      "name": "daoDetails",
      "outputs": [
        {
          "internalType": "uint256",
          "name": "period",
          "type": "uint256"
        },
        {
          "internalType": "uint256",
          "name": "price",
          "type": "uint256"
        },
        {
          "internalType": "bool",
          "name": "isBalanceLocked",
          "type": "bool"
        },
        {
          "internalType": "enum Daopia.PaymentType",
          "name": "paymentType",
          "type": "uint8"
        },
        {
          "internalType": "address payable",
          "name": "paymentContract",
          "type": "address"
        },
        {
          "internalType": "address payable",
          "name": "vault",
          "type": "address"
        },
        {
          "internalType": "enum Daopia.RegistrationStatus",
          "name": "registrationStatus",
          "type": "uint8"
        }
      ],
      "stateMutability": "view",
      "type": "function"
    },
    {
      "inputs": [
        {
          "internalType": "uint256",
          "name": "",
          "type": "uint256"
        }
      ],
      "name": "daoFrontends",
      "outputs": [
        {
          "internalType": "string",
          "name": "name",
          "type": "string"
        },
        {
          "internalType": "string",
          "name": "description",
          "type": "string"
        },
        {
          "internalType": "string",
          "name": "logoUrl",
          "type": "string"
        }
      ],
      "stateMutability": "view",
      "type": "function"
    },
    {
      "inputs": [
        {
          "internalType": "address",
          "name": "",
          "type": "address"
        }
      ],
      "name": "dealDetails",
      "outputs": [
        {
          "internalType": "uint256",
          "name": "repair_treshold",
          "type": "uint256"
        },
        {
          "internalType": "uint256",
          "name": "renew_treshold",
          "type": "uint256"
        },
        {
          "internalType": "uint256",
          "name": "num_copies",
          "type": "uint256"
        }
      ],
      "stateMutability": "view",
      "type": "function"
    },
    {
      "inputs": [],
      "name": "dealStatus",
      "outputs": [
        {
          "internalType": "contract DealStatus",
          "name": "",
          "type": "address"
        }
      ],
      "stateMutability": "view",
      "type": "function"
    },
    {
      "inputs": [
        {
          "internalType": "address",
          "name": "user",
          "type": "address"
        },
        {
          "internalType": "address",
          "name": "dao",
          "type": "address"
        }
      ],
      "name": "getUser",
      "outputs": [
        {
          "internalType": "uint256",
          "name": "",
          "type": "uint256"
        }
      ],
      "stateMutability": "view",
      "type": "function"
    },
    {
      "inputs": [
        {
          "internalType": "address",
          "name": "user",
          "type": "address"
        },
        {
          "internalType": "address",
          "name": "dao",
          "type": "address"
        }
      ],
      "name": "getUserExpiration",
      "outputs": [
        {
          "internalType": "uint256",
          "name": "",
          "type": "uint256"
        }
      ],
      "stateMutability": "view",
      "type": "function"
    },
    {
      "inputs": [
        {
          "internalType": "address",
          "name": "",
          "type": "address"
        },
        {
          "internalType": "address",
          "name": "",
          "type": "address"
        }
      ],
      "name": "lastPayment",
      "outputs": [
        {
          "internalType": "uint256",
          "name": "",
          "type": "uint256"
        }
      ],
      "stateMutability": "view",
      "type": "function"
    },
    {
      "inputs": [
        {
          "internalType": "address",
          "name": "selectedDao",
          "type": "address"
        }
      ],
      "name": "makePayment",
      "outputs": [],
      "stateMutability": "payable",
      "type": "function"
    },
    {
      "inputs": [
        {
          "internalType": "address",
          "name": "dao",
          "type": "address"
        },
        {
          "internalType": "string",
          "name": "description",
          "type": "string"
        }
      ],
      "name": "makeProposalToDao",
      "outputs": [],
      "stateMutability": "nonpayable",
      "type": "function"
    },
    {
      "inputs": [
        {
          "internalType": "address",
          "name": "",
          "type": "address"
        },
        {
          "internalType": "address",
          "name": "",
          "type": "address"
        },
        {
          "internalType": "uint256",
          "name": "",
          "type": "uint256"
        },
        {
          "internalType": "bytes",
          "name": "",
          "type": "bytes"
        }
      ],
      "name": "onERC721Received",
      "outputs": [
        {
          "internalType": "bytes4",
          "name": "",
          "type": "bytes4"
        }
      ],
      "stateMutability": "nonpayable",
      "type": "function"
    },
    {
      "inputs": [],
      "name": "proposalCounter",
      "outputs": [
        {
          "internalType": "uint256",
          "name": "",
          "type": "uint256"
        }
      ],
      "stateMutability": "view",
      "type": "function"
    },
    {
      "inputs": [],
      "name": "proposalsTableId",
      "outputs": [
        {
          "internalType": "uint256",
          "name": "",
          "type": "uint256"
        }
      ],
      "stateMutability": "view",
      "type": "function"
    },
    {
      "inputs": [
        {
          "components": [
            {
              "internalType": "uint256",
              "name": "period",
              "type": "uint256"
            },
            {
              "internalType": "uint256",
              "name": "price",
              "type": "uint256"
            },
            {
              "internalType": "bool",
              "name": "isBalanceLocked",
              "type": "bool"
            },
            {
              "internalType": "enum Daopia.PaymentType",
              "name": "paymentType",
              "type": "uint8"
            },
            {
              "internalType": "address payable",
              "name": "paymentContract",
              "type": "address"
            },
            {
              "internalType": "address payable",
              "name": "vault",
              "type": "address"
            },
            {
              "internalType": "enum Daopia.RegistrationStatus",
              "name": "registrationStatus",
              "type": "uint8"
            }
          ],
          "internalType": "struct Daopia.DaoDetails",
          "name": "registrationDetails",
          "type": "tuple"
        },
        {
          "components": [
            {
              "internalType": "uint256",
              "name": "repair_treshold",
              "type": "uint256"
            },
            {
              "internalType": "uint256",
              "name": "renew_treshold",
              "type": "uint256"
            },
            {
              "internalType": "uint256",
              "name": "num_copies",
              "type": "uint256"
            }
          ],
          "internalType": "struct Daopia.DealDetails",
          "name": "details",
          "type": "tuple"
        },
        {
          "components": [
            {
              "internalType": "string",
              "name": "name",
              "type": "string"
            },
            {
              "internalType": "string",
              "name": "description",
              "type": "string"
            },
            {
              "internalType": "string",
              "name": "logoUrl",
              "type": "string"
            }
          ],
          "internalType": "struct Daopia.DaoFrontend",
          "name": "frontend",
          "type": "tuple"
        }
      ],
      "name": "registerDao",
      "outputs": [],
      "stateMutability": "nonpayable",
      "type": "function"
    },
    {
      "inputs": [
        {
          "internalType": "address",
          "name": "",
          "type": "address"
        },
        {
          "internalType": "address",
          "name": "",
          "type": "address"
        }
      ],
      "name": "userDiscounts",
      "outputs": [
        {
          "internalType": "uint256",
          "name": "",
          "type": "uint256"
        }
      ],
      "stateMutability": "view",
      "type": "function"
    },
    {
      "inputs": [],
      "name": "withdrawDaoBalance",
      "outputs": [],
      "stateMutability": "nonpayable",
      "type": "function"
    },
    {
      "stateMutability": "payable",
      "type": "receive"
    }
  ],
  "bytecode": "0x60806040523480156200001157600080fd5b506001600055600880546001600160a01b03191633179055604051620000379062000501565b604051809103906000f08015801562000054573d6000803e3d6000fd5b50600980546001600160a01b0319166001600160a01b03929092169190911790556200007f62000085565b620006d7565b6200009a6200016160201b6200142b1760201c565b6001600160a01b031663a15ab08d30620000f7604051806080016040528060598152602001620077ca605991396040518060400160405280600681526020016564616f70696160d01b8152506200032e60201b620015fa1760201c565b6040518363ffffffff1660e01b8152600401620001169291906200058d565b6020604051808303816000875af115801562000136573d6000803e3d6000fd5b505050506040513d601f19601f820116820180604052508101906200015c9190620005c1565b600655565b60004660010362000185575073012969f7e3439a9b04025b5a049eb9bad82a8c1290565b46600a03620001a7575073fad44bf5b843de943a09d4f3e84949a11d3aa3e690565b4661a4b103620001ca5750739abd75e8640871a5a20d3b4ee6330a04c962affd90565b4661a4ba03620001ed5750731a22854c5b1642760a827f20137a67930ae108d290565b466089036200020f5750735c4e6a9e5c1e1bf445a062006faf19ea6c49afea90565b4661013a036200023257507359ef8bf2d6c102b4c42aef9189e1a9f0abfd652d90565b4662aa36a70362000256575073c50c62498448acc8dbde43da77f8d5d2e2c7597d90565b466101a40362000279575073c72e8a7be04f2469f8c2db3f1bdf69a7d516abba90565b4662066eed036200029d575073033f69e8d119205089ab15d340f5b797732f646b90565b466201388103620002c15750734b48841d4b32c4650e4abc117a03fe8b51f38f6890565b466204cb2f03620002e5575073030bcf3d50cad04c2e57391b12740982a930862190565b46617a690362000308575073e7f1725e7734ce288f8367e1bb143e90bb3f051290565b4660405163264e42cf60e01b8152600401620003259190620005ed565b60405180910390fd5b60608162000347466200037460201b620016301760201c565b846040516020016200035c9392919062000651565b60405160208183030381529060405290505b92915050565b606060006200038e836200041860201b620016d11760201c565b60010190506000816001600160401b03811115620003b057620003b0620006c1565b6040519080825280601f01601f191660200182016040528015620003db576020820181803683370190505b5090508181016020015b600019016f181899199a1a9b1b9c1cb0b131b232b360811b600a86061a8153600a8504945084620003e557509392505050565b6000807a184f03e93ff9f4daa797ed6e38ed64bf6a1f010000000000000000831062000462577a184f03e93ff9f4daa797ed6e38ed64bf6a1f010000000000000000830492506040015b6d04ee2d6d415b85acef810000000083106200048f576d04ee2d6d415b85acef8100000000830492506020015b662386f26fc100008310620004ae57662386f26fc10000830492506010015b6305f5e1008310620004c7576305f5e100830492506008015b6127108310620004dc57612710830492506004015b60648310620004ef576064830492506002015b600a83106200036e5760010192915050565b613e3f806200398b83390190565b60006001600160a01b0382166200036e565b6200052c816200050f565b82525050565b60005b838110156200054f57818101518382015260200162000535565b50506000910152565b600062000563825190565b8084526020840193506200057c81856020860162000532565b601f01601f19169290920192915050565b604081016200059d828562000521565b8181036020830152620005b1818462000558565b949350505050565b80516200036e565b600060208284031215620005d857620005d8600080fd5b6000620005b18484620005b9565b806200052c565b602081016200036e8284620005e6565b600062000608825190565b6200061881856020860162000532565b9290920192915050565b605f60f81b815260005b5060010190565b600560fb1b815260006200062c565b602960f81b815260006200062c565b6c021a922a0aa22902a20a126229609d1b8152600d016000620006758286620005fd565b9150620006828262000622565b9150620006908285620005fd565b91506200069d8262000633565b9150620006ab8284620005fd565b9150620006b88262000642565b95945050505050565b634e487b7160e01b600052604160045260246000fd5b6132a480620006e76000396000f3fe6080604052600436106101845760003560e01c806390964906116100d6578063bf56f4991161007f578063d0d6fc0e11610059578063d0d6fc0e146104df578063d6288173146104ff578063f4179e711461052e57600080fd5b8063bf56f499146103fd578063c82204e51461047e578063cf14f9c91461049457600080fd5b8063a4bf1361116100b0578063a4bf136114610390578063b4b6f482146103b0578063b85477c5146103d057600080fd5b8063909649061461031857806390bde51714610350578063a2b40d191461037057600080fd5b806333e659ad116101385780636450bd14116101125780636450bd14146102b857806366cc8851146102d85780636a2b171a146102f857600080fd5b806333e659ad1461024b5780634300cd841461026b5780635ef8cd871461028b57600080fd5b8063150b7a0211610169578063150b7a02146101d35780632d6ac0cb14610200578063300be4fc1461023857600080fd5b80630c0512e914610190578063121e56db146101bc57600080fd5b3661018b57005b600080fd5b34801561019c57600080fd5b506101a660075481565b6040516101b39190611f38565b60405180910390f35b3480156101c857600080fd5b506101d161054e565b005b3480156101df57600080fd5b506101f36101ee36600461207a565b61065c565b6040516101b39190612121565b34801561020c57600080fd5b506101a661021b36600461212f565b600360209081526000928352604080842090915290825290205481565b6101d161024636600461216c565b610686565b34801561025757600080fd5b506101d161026636600461218d565b61087f565b34801561027757600080fd5b506101d1610286366004612210565b6109b3565b34801561029757600080fd5b506101a66102a636600461216c565b60026020526000908152604090205481565b3480156102c457600080fd5b506101d16102d33660046122f2565b610a56565b3480156102e457600080fd5b506101d16102f3366004612413565b610b9f565b34801561030457600080fd5b506101d1610313366004612476565b610dee565b34801561032457600080fd5b506101a661033336600461212f565b600460209081526000928352604080842090915290825290205481565b34801561035c57600080fd5b506101a661036b36600461212f565b610e95565b34801561037c57600080fd5b506101d161038b3660046124a9565b610eee565b34801561039c57600080fd5b506101d16103ab3660046124a9565b610f48565b3480156103bc57600080fd5b506101d16103cb3660046124ca565b610fa4565b3480156103dc57600080fd5b506009546103f0906001600160a01b031681565b6040516101b3919061255a565b34801561040957600080fd5b5061046b61041836600461216c565b60016020819052600091825260409091208054918101546002820154600390920154909160ff8082169261010083048216926001600160a01b036201000090910481169290821691600160a01b90041687565b6040516101b397969594939291906125bd565b34801561048a57600080fd5b506101a660065481565b3480156104a057600080fd5b506104d06104af36600461216c565b60056020526000908152604090208054600182015460029092015490919083565b6040516101b393929190612625565b3480156104eb57600080fd5b506101d16104fa36600461264d565b6110b0565b34801561050b57600080fd5b5061051f61051a3660046124a9565b611217565b6040516101b3939291906126f2565b34801561053a57600080fd5b506101a661054936600461212f565b6113e9565b6105566117b3565b336000908152600160205260409020600301546001600160a01b03166105975760405162461bcd60e51b815260040161058e9061276b565b60405180910390fd5b336000818152600160205260409020600301546001600160a01b0316146105d05760405162461bcd60e51b815260040161058e906127d8565b336000908152600260205260409020546105fc5760405162461bcd60e51b815260040161058e9061281c565b336000908152600260208181526040808420849055600182528084206003015492909152516001600160a01b03909116916108fc9181818181818888f1935050505015801561064f573d6000803e3d6000fd5b5061065a6001600055565b565b7f150b7a02000000000000000000000000000000000000000000000000000000005b949350505050565b61068e6117b3565b6001600160a01b03818116600090815260016020526040902060030154166106c85760405162461bcd60e51b815260040161058e9061276b565b60006001600160a01b0382166000908152600160205260409020600390810154600160a01b900460ff169081111561070257610702612570565b1461071f5760405162461bcd60e51b815260040161058e90612860565b6001600160a01b0381166000908152600360209081526040808320338452909152902054156107a8576001600160a01b038116600081815260036020908152604080832033845282528083205493835260019182905290912001546107849190612886565b3410156107a35760405162461bcd60e51b815260040161058e906128cd565b6107e4565b6001600160a01b038116600090815260016020819052604090912001543410156107e45760405162461bcd60e51b815260040161058e906128cd565b6001600160a01b038116600090815260016020819052604090912001543410156108205760405162461bcd60e51b815260040161058e906128cd565b6001600160a01b03811660009081526001602052604090206002015461084c908290349060ff166117dc565b6001600160a01b0381166000908152600460209081526040808320338452909152902042905561087c6001600055565b50565b6008546001600160a01b031633146108a95760405162461bcd60e51b815260040161058e90612911565b60065460006108b7846119e6565b6040516020016108c79190612943565b604051602081830303815290604052905060006108eb6108e685611630565b6119e6565b6108f76108e688611a0f565b604051602001610908929190612975565b604051602081830303815290604052905061092161142b565b6001600160a01b031663377af0da308561095b6040518060400160405280600681526020016564616f70696160d01b815250888888611a25565b6040518463ffffffff1660e01b8152600401610979939291906129ff565b600060405180830381600087803b15801561099357600080fd5b505af11580156109a7573d6000803e3d6000fd5b50505050505050505050565b6109bb6117b3565b336000908152600160205260409020600301546001600160a01b03166109f35760405162461bcd60e51b815260040161058e9061276b565b3360009081526001602052604090206003908101805483927fffffffffffffffffffffff00ffffffffffffffffffffffffffffffffffffffff90911690600160a01b908490811115610a4757610a47612570565b021790555061087c6001600055565b336000908152600160205260409020600301546001600160a01b0316610a8e5760405162461bcd60e51b815260040161058e9061276b565b336000908152600160208181526040928390208451815590840151918101919091559082015160028201805491151560ff19831681178255606085015185949390929161ff00191661ffff1990911617610100836003811115610af357610af3612570565b021790555060808201516002820180546001600160a01b03928316620100000275ffffffffffffffffffffffffffffffffffffffff00001990911617905560a0830151600380840180549290931673ffffffffffffffffffffffffffffffffffffffff1983168117845560c0860151939274ffffffffffffffffffffffffffffffffffffffffff19161790600160a01b908490811115610b9557610b95612570565b0217905550505050565b610ba76117b3565b336000908152600160205260409020600301546001600160a01b031615610be05760405162461bcd60e51b815260040161058e90612a60565b60a08301516001600160a01b03163314610c0c5760405162461bcd60e51b815260040161058e906127d8565b336000908152600160208181526040928390208651815590860151918101919091559084015160028201805491151560ff19831681178255606087015187949390929161ff00191661ffff1990911617610100836003811115610c7157610c71612570565b021790555060808201516002820180546001600160a01b03928316620100000275ffffffffffffffffffffffffffffffffffffffff00001990911617905560a0830151600380840180549290931673ffffffffffffffffffffffffffffffffffffffff1983168117845560c0860151939274ffffffffffffffffffffffffffffffffffffffffff19161790600160a01b908490811115610d1357610d13612570565b0217905550905050600382604001511115610d405760405162461bcd60e51b815260040161058e90612aa4565b336000908152600560209081526040808320855181559185015160018084019190915590850151600290920191909155600a80549182018155909152815182916003027fc65a7bb8d6351c1cf70c95a316cc6a92839c986682d98bc35f958f4883f9d2a801908190610db29082612b93565b5060208201516001820190610dc79082612b93565b5060408201516002820190610ddc9082612b93565b505050610de96001600055565b505050565b610df66117b3565b336000908152600160205260409020600301546001600160a01b0316610e2e5760405162461bcd60e51b815260040161058e9061276b565b3360009081526001602081905260409091200154811115610e615760405162461bcd60e51b815260040161058e90612cb1565b3360009081526003602090815260408083206001600160a01b03861684529091529020819055610e916001600055565b5050565b6001600160a01b038082166000908152600160209081526040808320546004835281842094871684529390915281205490914291610ed39190612cc1565b10610edf576001610ee2565b60005b60ff1690505b92915050565b610ef66117b3565b336000908152600160205260409020600301546001600160a01b0316610f2e5760405162461bcd60e51b815260040161058e9061276b565b336000908152600160208190526040822081019290925555565b610f506117b3565b336000908152600160205260409020600301546001600160a01b0316610f885760405162461bcd60e51b815260040161058e9061276b565b33600090815260016020526040902081905561087c6001600055565b610fac6117b3565b6001600160a01b0382811660009081526001602052604090206003015416610fe65760405162461bcd60e51b815260040161058e9061276b565b60006001600160a01b0383166000908152600160205260409020600390810154600160a01b900460ff169081111561102057611020612570565b1461103d5760405162461bcd60e51b815260040161058e90612860565b6110a66040518060800160405280336001600160a01b031681526020016040518060400160405280600381526020017f63696400000000000000000000000000000000000000000000000000000000008152508152602001838152602001600081525083611aa0565b610e916001600055565b6110b86117b3565b336000818152600160205260409020600301546001600160a01b03166110f05760405162461bcd60e51b815260040161058e9061276b565b60006001600160a01b0382166000908152600160205260409020600390810154600160a01b900460ff169081111561112a5761112a612570565b146111475760405162461bcd60e51b815260040161058e90612860565b6001600160a01b038181166000908152600160205260409020600301541633146111835760405162461bcd60e51b815260040161058e90612d08565b61118d8382611be0565b6009546040517faf955b410000000000000000000000000000000000000000000000000000000081526001600160a01b039091169063af955b41906111da90879086908690600401612d18565b600060405180830381600087803b1580156111f457600080fd5b505af1158015611208573d6000803e3d6000fd5b5050505050610de96001600055565b600a818154811061122757600080fd5b906000526020600020906003020160009150905080600001805461124a90612aca565b80601f016020809104026020016040519081016040528092919081815260200182805461127690612aca565b80156112c35780601f10611298576101008083540402835291602001916112c3565b820191906000526020600020905b8154815290600101906020018083116112a657829003601f168201915b5050505050908060010180546112d890612aca565b80601f016020809104026020016040519081016040528092919081815260200182805461130490612aca565b80156113515780601f1061132657610100808354040283529160200191611351565b820191906000526020600020905b81548152906001019060200180831161133457829003601f168201915b50505050509080600201805461136690612aca565b80601f016020809104026020016040519081016040528092919081815260200182805461139290612aca565b80156113df5780601f106113b4576101008083540402835291602001916113df565b820191906000526020600020905b8154815290600101906020018083116113c257829003601f168201915b5050505050905083565b6001600160a01b0380821660009081526001602090815260408083205460048352818420948716845293909152812054909161142491612cc1565b9392505050565b60004660010361144e575073012969f7e3439a9b04025b5a049eb9bad82a8c1290565b46600a0361146f575073fad44bf5b843de943a09d4f3e84949a11d3aa3e690565b4661a4b1036114915750739abd75e8640871a5a20d3b4ee6330a04c962affd90565b4661a4ba036114b35750731a22854c5b1642760a827f20137a67930ae108d290565b466089036114d45750735c4e6a9e5c1e1bf445a062006faf19ea6c49afea90565b4661013a036114f657507359ef8bf2d6c102b4c42aef9189e1a9f0abfd652d90565b4662aa36a703611519575073c50c62498448acc8dbde43da77f8d5d2e2c7597d90565b466101a40361153b575073c72e8a7be04f2469f8c2db3f1bdf69a7d516abba90565b4662066eed0361155e575073033f69e8d119205089ab15d340f5b797732f646b90565b4662013881036115815750734b48841d4b32c4650e4abc117a03fe8b51f38f6890565b466204cb2f036115a4575073030bcf3d50cad04c2e57391b12740982a930862190565b46617a69036115c6575073e7f1725e7734ce288f8367e1bb143e90bb3f051290565b466040517f264e42cf00000000000000000000000000000000000000000000000000000000815260040161058e9190611f38565b60608161160646611630565b8460405160200161161993929190612dc6565b604051602081830303815290604052905092915050565b6060600061163d836116d1565b600101905060008167ffffffffffffffff81111561165d5761165d611f87565b6040519080825280601f01601f191660200182016040528015611687576020820181803683370190505b5090508181016020015b600019017f3031323334353637383961626364656600000000000000000000000000000000600a86061a8153600a8504945084611691575b509392505050565b6000807a184f03e93ff9f4daa797ed6e38ed64bf6a1f010000000000000000831061171a577a184f03e93ff9f4daa797ed6e38ed64bf6a1f010000000000000000830492506040015b6d04ee2d6d415b85acef81000000008310611746576d04ee2d6d415b85acef8100000000830492506020015b662386f26fc10000831061176457662386f26fc10000830492506010015b6305f5e100831061177c576305f5e100830492506008015b612710831061179057612710830492506004015b606483106117a2576064830492506002015b600a8310610ee85760010192915050565b6002600054036117d55760405162461bcd60e51b815260040161058e90612e65565b6002600055565b6000816117e95730611808565b6001600160a01b03808516600090815260016020526040902060030154165b905060016001600160a01b038516600090815260016020526040902060020154610100900460ff16600381111561184157611841612570565b036118ab576001600160a01b038481166000908152600360209081526040808320338452909152902054908216906108fc9061187d9086612886565b6040518115909202916000818181858888f193505050501580156118a5573d6000803e3d6000fd5b506119be565b6001600160a01b03848116600090815260016020526040902060020154620100009004166118eb5760405162461bcd60e51b815260040161058e90612ea9565b6001600160a01b038085166000908152600160209081526040808320600201546003835281842033808652935290832054620100009091049093169283916323b872dd91869061193b908a612886565b6040518463ffffffff1660e01b815260040161195993929190612eb9565b6020604051808303816000875af1158015611978573d6000803e3d6000fd5b505050506040513d601f19601f8201168201806040525081019061199c9190612edf565b9050806119bb5760405162461bcd60e51b815260040161058e90612f34565b50505b5050506001600160a01b03166000908152600360209081526040808320338452909152812055565b6060816040516020016119f99190612f6e565b6040516020818303038152906040529050919050565b6060610ee86001600160a01b0383166014611d19565b60606000611a338686611eca565b60408051602081019091526000815284519192509015611a705783604051602001611a5e9190612fbd565b60405160208183030381529060405290505b818582604051602001611a8593929190612ffe565b60405160208183030381529060405292505050949350505050565b6000611ab26108e68460600151611630565b9050611abc61142b565b6001600160a01b031663377af0da30600654611b8b6040518060400160405280600681526020016564616f70696160d01b81525060065460405180606001604052806029815260200161324660299139611b2b6108e6600760008154611b2190613053565b9182905550611630565b611b3b6108e68d60000151611a0f565b611b476108e68d611a0f565b611b548e602001516119e6565b611b618f604001516119e6565b8d604051602001611b7796959493929190613066565b604051602081830303815290604052611ef1565b6040518463ffffffff1660e01b8152600401611ba9939291906129ff565b600060405180830381600087803b158015611bc357600080fd5b505af1158015611bd7573d6000803e3d6000fd5b50505050505050565b60065460408051808201909152600181527f31000000000000000000000000000000000000000000000000000000000000006020820152600090611c23906119e6565b604051602001611c3391906130e0565b60405160208183030381529060405290506000611c526108e686611630565b611c5e6108e686611a0f565b604051602001611c6f929190612975565b6040516020818303038152906040529050611c8861142b565b6001600160a01b031663377af0da3085611cc26040518060400160405280600681526020016564616f70696160d01b815250888888611a25565b6040518463ffffffff1660e01b8152600401611ce0939291906129ff565b600060405180830381600087803b158015611cfa57600080fd5b505af1158015611d0e573d6000803e3d6000fd5b505050505050505050565b60606000611d28836002613112565b611d33906002612cc1565b67ffffffffffffffff811115611d4b57611d4b611f87565b6040519080825280601f01601f191660200182016040528015611d75576020820181803683370190505b5090507f300000000000000000000000000000000000000000000000000000000000000081600081518110611dac57611dac613131565b60200101906001600160f81b031916908160001a9053507f780000000000000000000000000000000000000000000000000000000000000081600181518110611df757611df7613131565b60200101906001600160f81b031916908160001a9053506000611e1b846002613112565b611e26906001612cc1565b90505b6001811115611eab577f303132333435363738396162636465660000000000000000000000000000000085600f1660108110611e6757611e67613131565b1a60f81b828281518110611e7d57611e7d613131565b60200101906001600160f81b031916908160001a90535060049490941c93611ea481613147565b9050611e29565b5083156114245760405162461bcd60e51b815260040161058e90613190565b606082611ed646611630565b611edf84611630565b604051602001611619939291906131a0565b60606000611eff8686611eca565b9050808484604051602001611f16939291906131ce565b604051602081830303815290604052915050949350505050565b805b82525050565b60208101610ee88284611f30565b60006001600160a01b038216610ee8565b611f6081611f46565b811461087c57600080fd5b8035610ee881611f57565b80611f60565b8035610ee881611f76565b634e487b7160e01b600052604160045260246000fd5b601f19601f830116810181811067ffffffffffffffff82111715611fc357611fc3611f87565b6040525050565b6000611fd560405190565b9050611fe18282611f9d565b919050565b600067ffffffffffffffff82111561200057612000611f87565b601f19601f83011660200192915050565b82818337506000910152565b600061203061202b84611fe6565b611fca565b90508281526020810184848401111561204b5761204b600080fd5b6116c9848285612011565b600082601f83011261206a5761206a600080fd5b813561067e84826020860161201d565b6000806000806080858703121561209357612093600080fd5b600061209f8787611f6b565b94505060206120b087828801611f6b565b93505060406120c187828801611f7c565b925050606085013567ffffffffffffffff8111156120e1576120e1600080fd5b6120ed87828801612056565b91505092959194509250565b7fffffffff000000000000000000000000000000000000000000000000000000008116611f32565b60208101610ee882846120f9565b6000806040838503121561214557612145600080fd5b60006121518585611f6b565b925050602061216285828601611f6b565b9150509250929050565b60006020828403121561218157612181600080fd5b600061067e8484611f6b565b6000806000606084860312156121a5576121a5600080fd5b60006121b18686611f6b565b935050602084013567ffffffffffffffff8111156121d1576121d1600080fd5b6121dd86828701612056565b92505060406121ee86828701611f7c565b9150509250925092565b6004811061087c57600080fd5b8035610ee8816121f8565b60006020828403121561222557612225600080fd5b600061067e8484612205565b801515611f60565b8035610ee881612231565b600060e0828403121561225957612259600080fd5b61226360e0611fca565b905060006122718484611f7c565b825250602061228284848301611f7c565b602083015250604061229684828501612239565b60408301525060606122aa84828501612205565b60608301525060806122be84828501611f6b565b60808301525060a06122d284828501611f6b565b60a08301525060c06122e684828501612205565b60c08301525092915050565b600060e0828403121561230757612307600080fd5b600061067e8484612244565b60006060828403121561232857612328600080fd5b6123326060611fca565b905060006123408484611f7c565b825250602061235184848301611f7c565b602083015250604061236584828501611f7c565b60408301525092915050565b60006060828403121561238657612386600080fd5b6123906060611fca565b9050813567ffffffffffffffff8111156123ac576123ac600080fd5b6123b884828501612056565b825250602082013567ffffffffffffffff8111156123d8576123d8600080fd5b6123e484828501612056565b602083015250604082013567ffffffffffffffff81111561240757612407600080fd5b61236584828501612056565b6000806000610160848603121561242c5761242c600080fd5b60006124388686612244565b93505060e061244986828701612313565b92505061014084013567ffffffffffffffff81111561246a5761246a600080fd5b6121ee86828701612371565b6000806040838503121561248c5761248c600080fd5b60006124988585611f6b565b925050602061216285828601611f7c565b6000602082840312156124be576124be600080fd5b600061067e8484611f7c565b600080604083850312156124e0576124e0600080fd5b60006124ec8585611f6b565b925050602083013567ffffffffffffffff81111561250c5761250c600080fd5b61216285828601612056565b6000610ee86001600160a01b03831661252f565b90565b6001600160a01b031690565b6000610ee882612518565b6000610ee88261253b565b611f3281612546565b60208101610ee88284612551565b801515611f32565b634e487b7160e01b600052602160045260246000fd5b6004811061087c5761087c612570565b80611fe181612586565b6000610ee882612596565b611f32816125a0565b611f3281611f46565b60e081016125cb828a611f30565b6125d86020830189611f30565b6125e56040830188612568565b6125f260608301876125ab565b6125ff60808301866125b4565b61260c60a08301856125b4565b61261960c08301846125ab565b98975050505050505050565b606081016126338286611f30565b6126406020830185611f30565b61067e6040830184611f30565b60008060006060848603121561266557612665600080fd5b833567ffffffffffffffff81111561267f5761267f600080fd5b61268b86828701612056565b93505060206121dd86828701611f7c565b60005b838110156126b757818101518382015260200161269f565b50506000910152565b60006126ca825190565b8084526020840193506126e181856020860161269c565b601f01601f19169290920192915050565b6060808252810161270381866126c0565b9050818103602083015261271781856126c0565b9050818103604083015261272b81846126c0565b95945050505050565b601281526000602082017f44616f206e6f7420726567697374657265640000000000000000000000000000815291505b5060200190565b60208082528101610ee881612734565b602481526000602082017f5661756c742063616e277420626520646966666572656e742066726f6d20736581527f6e64657200000000000000000000000000000000000000000000000000000000602082015291505b5060400190565b60208082528101610ee88161277b565b601681526000602082017f4e6f2062616c616e636520746f2077697468647261770000000000000000000081529150612764565b60208082528101610ee8816127e8565b601781526000602082017f44616f20726567697374726174696f6e20636c6f73656400000000000000000081529150612764565b60208082528101610ee88161282c565b634e487b7160e01b600052601160045260246000fd5b81810381811115610ee857610ee8612870565b601481526000602082017f496e73756666696369656e74207061796d656e7400000000000000000000000081529150612764565b60208082528101610ee881612899565b601981526000602082017f4f6e6c79206f776e65722063616e206368616e6765206369640000000000000081529150612764565b60208082528101610ee8816128dd565b600061292b825190565b61293981856020860161269c565b9290920192915050565b7f6369643d00000000000000000000000000000000000000000000000000000000815260040160006114248284612921565b7f69643d0000000000000000000000000000000000000000000000000000000000815260030160006129a78285612921565b7f414e44200000000000000000000000000000000000000000000000000000000081527f64616f3d000000000000000000000000000000000000000000000000000000006004820152600801915061067e8284612921565b60608101612a0d82866125b4565b612a1a6020830185611f30565b818103604083015261272b81846126c0565b601681526000602082017f44616f20616c726561647920726567697374657265640000000000000000000081529150612764565b60208082528101610ee881612a2c565b601481526000602082017f4d6178203320636f7069657320616c6c6f77656400000000000000000000000081529150612764565b60208082528101610ee881612a70565b634e487b7160e01b600052602260045260246000fd5b600281046001821680612ade57607f821691505b602082108103612af057612af0612ab4565b50919050565b6000610ee861252c8381565b612b0b83612af6565b81546008840282811b60001990911b908116901990911617825550505050565b6000610de9818484612b02565b81811015610e9157612b4b600082612b2b565b600101612b38565b601f821115610de9576000818152602090206020601f85010481016020851015612b7a5750805b612b8c6020601f860104830182612b38565b5050505050565b815167ffffffffffffffff811115612bad57612bad611f87565b612bb78254612aca565b612bc2828285612b53565b6020601f831160018114612bf65760008415612bde5750858201515b600019600886021c1981166002860217865550612c4f565b600085815260208120601f198616915b82811015612c265788850151825560209485019460019092019101612c06565b86831015612c425784890151600019601f89166008021c191682555b6001600288020188555050505b505050505050565b602481526000602082017f43616e2774206170706c7920646973636f756e74206d6f7265207468656e207081527f7269636500000000000000000000000000000000000000000000000000000000602082015291506127d1565b60208082528101610ee881612c57565b80820180821115610ee857610ee8612870565b601481526000602082017f4f6e6c792064616f2063616e20617070726f766500000000000000000000000081529150612764565b60208082528101610ee881612cd4565b60608082528101612d2981866126c0565b9050612d386020830185611f30565b61067e60408301846125b4565b7f5f00000000000000000000000000000000000000000000000000000000000000815260005b5060010190565b7f280000000000000000000000000000000000000000000000000000000000000081526000612d6b565b7f290000000000000000000000000000000000000000000000000000000000000081526000612d6b565b7f435245415445205441424c4520000000000000000000000000000000000000008152600d016000612df88286612921565b9150612e0382612d45565b9150612e0f8285612921565b9150612e1a82612d72565b9150612e268284612921565b915061272b82612d9c565b601f81526000602082017f5265656e7472616e637947756172643a207265656e7472616e742063616c6c0081529150612764565b60208082528101610ee881612e31565b600881526000602082017f4e6f20746f6b656e00000000000000000000000000000000000000000000000081529150612764565b60208082528101610ee881612e75565b60608101612ec782866125b4565b6126406020830185612551565b8051610ee881612231565b600060208284031215612ef457612ef4600080fd5b600061067e8484612ed4565b600f81526000602082017f5472616e73666572206661696c6564000000000000000000000000000000000081529150612764565b60208082528101610ee881612f00565b7f270000000000000000000000000000000000000000000000000000000000000081526000612d6b565b6000612f7982612f44565b9150612f858284612921565b915061142482612f44565b7f2057484552452000000000000000000000000000000000000000000000000000815260005b5060070190565b6000612fc882612f90565b91506114248284612921565b7f555044415445200000000000000000000000000000000000000000000000000081526000612fb6565b600061300982612fd4565b91506130158286612921565b7f2053455420000000000000000000000000000000000000000000000000000000815260050191506130478285612921565b915061272b8284612921565b60006000198203612d6b57612d6b612870565b60006130728289612921565b600b60fa1b815260010191506130888288612921565b600b60fa1b8152600101915061309e8287612921565b600b60fa1b815260010191506130b48286612921565b600b60fa1b815260010191506130ca8285612921565b600b60fa1b815260010191506126198284612921565b7f7374617475733d00000000000000000000000000000000000000000000000000815260070160006114248284612921565b81810280821583820485141761312a5761312a612870565b5092915050565b634e487b7160e01b600052603260045260246000fd5b60008161315657613156612870565b506000190190565b60208082527f537472696e67733a20686578206c656e67746820696e73756666696369656e7491019081526000612764565b60208082528101610ee88161315e565b60006131ac8286612921565b91506131b782612d45565b91506131c38285612921565b915061304782612d45565b7f494e5345525420494e544f2000000000000000000000000000000000000000008152600c0160006132008286612921565b915061320b82612d72565b91506132178285612921565b7f2956414c554553280000000000000000000000000000000000000000000000008152915060088201612e1a56fe69642c636f6e74726962757465722c64616f2c6369642c6465736372697074696f6e2c737461747573a26469706673582212203861e879ee27bf8b4e07beca7a1e1a2e047f043ff3f962d8cf1430c7e1e5ee2864736f6c63430008110033608060405234801561001057600080fd5b5060008055600180546001600160a01b03191633179055613e09806100366000396000f3fe608060405234801561001057600080fd5b506004361061011b5760003560e01c8063af955b41116100b2578063c57e0dbb11610081578063db90035111610066578063db9003511461029f578063ef7fa71b146102b2578063f5034301146102c557600080fd5b8063c57e0dbb1461026c578063c914f6131461028c57600080fd5b8063af955b4114610211578063bdfd01ed14610226578063bfb7dc7414610239578063c024f4cc1461024c57600080fd5b806351362bfe116100ee57806351362bfe146101ab57806360b93184146101cb5780636ba9dd1f146101eb57806381bcd88c146101fe57600080fd5b80631b93f2cb146101205780633410e7ce1461014957806338d122421461015e578063496a9d211461018b575b600080fd5b61013361012e366004612434565b6102d8565b6040516101409190612479565b60405180910390f35b61015161035c565b604051610140919061254f565b60015461017e9073ffffffffffffffffffffffffffffffffffffffff1681565b6040516101409190612587565b61019e610199366004612686565b610439565b6040516101409190612745565b6101be6101b9366004612876565b6104d2565b60405161014091906128e7565b6101de6101d93660046129bd565b6104ea565b6040516101409190612a96565b6101336101f9366004612434565b610801565b61019e61020c366004612aa7565b61087f565b61022461021f366004612b07565b6109b1565b005b6101de610234366004612b66565b610a23565b610133610247366004612bcc565b610d2a565b61025f61025a366004612c9d565b610e45565b6040516101409190612cbe565b61027f61027a366004612c9d565b61103a565b6040516101409190612ce8565b61013361029a366004612686565b6110c4565b6101de6102ad366004612cf6565b61113f565b6101336102c0366004612686565b611174565b61019e6102d3366004612686565b6111e4565b600080600284846040516020016102f0929190612d79565b60408051601f198184030181529082905261030a91612dc1565b602060405180830381855afa158015610327573d6000803e3d6000fd5b5050506040513d601f19601f8201168201806040525081019061034a9190612dd8565b905060c01981165b9150505b92915050565b60608060005b600054811015610433576000818152600260205260409020805461038590612e0f565b80601f01602080910402602001604051908101604052809291908181526020018280546103b190612e0f565b80156103fe5780601f106103d3576101008083540402835291602001916103fe565b820191906000526020600020905b8154815290600101906020018083116103e157829003601f168201915b505050505082828151811061041557610415612e35565b6020026020010181905250808061042b90612e61565b915050610362565b50919050565b606060038260405161044b9190612dc1565b9081526020016040518091039020805480602002602001604051908101604052809291908181526020016000905b828210156104c757600084815260209081902060408051808201909152908401546001600160401b038082168352680100000000000000009091041681830152825260019092019101610479565b505050509050919050565b6000826104df8584610d2a565b1490505b9392505050565b60408051808201909152606081526000602082015260005486111561052a5760405162461bcd60e51b815260040161052190612eb2565b60405180910390fd5b6040516001600160401b0386169087907ffcfb278ce1c62d14ce854540f204ef9fc7d58f09adc7bd773da126dd906bb98090600090a36000868152600260205260408120805461057990612e0f565b80601f01602080910402602001604051908101604052809291908181526020018280546105a590612e0f565b80156105f25780601f106105c7576101008083540402835291602001916105f2565b820191906000526020600020905b8154815290600101906020018083116105d557829003601f168201915b5050505050905060005b60038260405161060c9190612dc1565b908152604051908190036020019020548110156106fb57866001600160401b031660038360405161063d9190612dc1565b9081526020016040518091039020828154811061065c5761065c612e35565b6000918252602090912001546001600160401b0316036106e95760405163bdfd01ed60e01b8152309063bdfd01ed9061069b9088908890600401612f72565b600060405180830381865afa1580156106b8573d6000803e3d6000fd5b505050506040513d6000823e601f3d908101601f191682016040526106e09190810190613052565b925050506107f8565b806106f381612e61565b9150506105fc565b506040805180820182526001600160401b038089168252871660208201529051600390610729908490612dc1565b90815260405190819003602090810182208054600181018255600091825290829020845191018054928501516001600160401b0390811668010000000000000000026fffffffffffffffffffffffffffffffff1990941692169190911791909117905563bdfd01ed60e01b8152309063bdfd01ed906107ae9088908890600401612f72565b600060405180830381865afa1580156107cb573d6000803e3d6000fd5b505050506040513d6000823e601f3d908101601f191682016040526107f39190810190613052565b925050505b95945050505050565b60008060028484604051602001610819929190612d79565b60408051601f198184030181529082905261083391612dc1565b602060405180830381855afa158015610850573d6000803e3d6000fd5b5050506040513d601f19601f820116820180604052508101906108739190612dd8565b60c01916949350505050565b60405163496a9d2160e01b81526060908190309063496a9d21906108a7908790600401612cbe565b600060405180830381865afa1580156108c4573d6000803e3d6000fd5b505050506040513d6000823e601f3d908101601f191682016040526108ec9190810190613130565b905060005b81518110156109a957600082828151811061090e5761090e612e35565b6020026020010151600001519050600061092782611318565b9050858160200151610939919061316a565b6001600160401b03164210156109945783838151811061095b5761095b612e35565b60200260200101610991604051806040016040528060006001600160401b0316815260200160006001600160401b031681525090565b90525b505080806109a190612e61565b9150506108f1565b509392505050565b6000805490806109c083612e61565b90915550506000805481526002602052604090206109de8482613223565b507fe28c401ebbc2835851e3c48b0857e92dcba5d261df5cadada9f0e2b602771925836000548484604051610a1694939291906132e6565b60405180910390a1505050565b604080518082019091526060815260006020820152610a458260200151611365565b610a615760405162461bcd60e51b81526004016105219061337d565b81516040517f1a57c81c00000000000000000000000000000000000000000000000000000000815260009173__$cf8b38afb45d8bc07c2c2ef429763fb9a3$__91631a57c81c91610ab491600401612cbe565b602060405180830381865af4158015610ad1573d6000803e3d6000fd5b505050506040513d601f19601f82011682018060405250810190610af59190612dd8565b90506000610b07856000015183610d2a565b9050600080610b39876000015160200151516001600160401b031660016001600160401b0316901b87602001516113a0565b9150915081610b5a5760405162461bcd60e51b8152600401610521906133c1565b6020860151875151600091610b6e916133d1565b90506000610b8f604051806020016040528088815250838a6020015161140c565b90506000610b9f61029a83610e45565b90506000610bb18b6020015183610d2a565b9050808714610bd25760405162461bcd60e51b815260040161052190613464565b600080610c0e8d6020015160200151516001600160401b031660016001600160401b0316901b60206002610c069190613474565b60ff166113a0565b9150915081610c2f5760405162461bcd60e51b8152600401610521906134c2565b806001600160401b0316876001600160401b031614610c605760405162461bcd60e51b81526004016105219061352c565b610c6a8d82611498565b60408051808201918290527f7a2ffb01000000000000000000000000000000000000000000000000000000009091528073__$cf8b38afb45d8bc07c2c2ef429763fb9a3$__637a2ffb01610cc18d60448501612479565b600060405180830381865af4158015610cde573d6000803e3d6000fd5b505050506040513d6000823e601f3d908101601f19168201604052610d06919081019061353c565b8152602001886001600160401b03168152509a505050505050505050505092915050565b6000604083602001515110610d515760405162461bcd60e51b8152600401610521906135d0565b60208301515183516001600160401b0390811690911c1615610d855760405162461bcd60e51b81526004016105219061363a565b825182906000805b866020015151816001600160401b03161015610e3a57600183811c677fffffffffffffff169381169250829003610df557610dee8760200151826001600160401b031681518110610de057610de0612e35565b6020026020010151856102d8565b9350610e28565b610e25848860200151836001600160401b031681518110610e1857610e18612e35565b60200260200101516102d8565b93505b80610e328161364a565b915050610d8d565b509195945050505050565b606060006010610e57600860026133d1565b610e6290602061366d565b610e6c919061366d565b6001600160401b03166001600160401b03811115610e8c57610e8c612595565b6040519080825280601f01601f191660200182016040528015610eb6576020820181803683370190505b5083516020820181905290915060005b6008811015610f3757610eda816008613690565b85602001516001600160401b0316901c60f81b8382602060ff16610efe91906136a8565b81518110610f0e57610f0e612e35565b60200101906001600160f81b031916908160001a90535080610f2f81612e61565b915050610ec6565b5060005b6008811015610fb657610f4f816008613690565b60408601516001600160401b0316901c60f81b8382610f70602060086136bb565b60ff16610f7d91906136a8565b81518110610f8d57610f8d612e35565b60200101906001600160f81b031916908160001a90535080610fae81612e61565b915050610f3b565b5060005b60108110156110315784606001518160108110610fd957610fd9612e35565b1a60f81b8382610feb602060106136bb565b60ff16610ff891906136a8565b8151811061100857611008612e35565b60200101906001600160f81b031916908160001a9053508061102981612e61565b915050610fba565b50909392505050565b60008061104683610e45565b9050600060028260405161105a9190612dc1565b602060405180830381855afa158015611077573d6000803e3d6000fd5b5050506040513d601f19601f8201168201806040525081019061109a9190612dd8565b7fffffffffffffffffffffffffffffff3f0000000000000000000000000000000016949350505050565b6000806002836040516020016110da9190612dc1565b60408051601f19818403018152908290526110f491612dc1565b602060405180830381855afa158015611111573d6000803e3d6000fd5b5050506040513d601f19601f820116820180604052508101906111349190612dd8565b60c019169392505050565b60408051808201909152606081526000602082015260006111608484610a23565b905061116c858261151c565b949350505050565b60008054818061118383612e61565b90915550506000805481526002602052604090206111a18382613223565b506000547f104e370246a6acb34978d26af9fb437cb9f46e15e94cc27f24f305528db420a1836040516111d49190612cbe565b60405180910390a2505060005490565b60405163496a9d2160e01b81526060908190309063496a9d219061120c908690600401612cbe565b600060405180830381865afa158015611229573d6000803e3d6000fd5b505050506040513d6000823e601f3d908101601f191682016040526112519190810190613130565b905060005b815181101561131157600082828151811061127357611273612e35565b6020026020010151600001519050600061128c826115f9565b90506000816020015160070b13806112ac5750806000015160070b600019145b156112fc578383815181106112c3576112c3612e35565b602002602001016112f9604051806040016040528060006001600160401b0316815260200160006001600160401b031681525090565b90525b5050808061130990612e61565b915050611256565b5092915050565b60408051808201909152600080825260208201526000611340836001600160401b031661163b565b9050600061135a60056309c30b206051856000600161165e565b905061116c8161178d565b6000816001600160401b031660000361138057506001919050565b61138b60018361316a565b82166001600160401b03166000149050919050565b600080836001600160401b03166000036113c05750600190506000611405565b8383026001600160401b0380851690808716908316816113e2576113e26136d8565b046001600160401b0316146113fe576000809250925050611405565b6001925090505b9250929050565b604080516080810182526000808252602082018190529181018290526060810191909152604080516080810182526000808252602082018190529181018290526060810191909152845181526001600160401b038085166020830152831660408201526114788161103a565b6fffffffffffffffffffffffffffffffff19166060820152949350505050565b60006114a3826117f1565b90506000806114c285602001516000015160206002610c069190613474565b91509150816114e35760405162461bcd60e51b815260040161052190613722565b826001600160401b0316816001600160401b031610156115155760405162461bcd60e51b815260040161052190613766565b5050505050565b6000611527836115f9565b90506000816020015160070b13156115515760405162461bcd60e51b8152600401610521906137aa565b6000816000015160070b136115785760405162461bcd60e51b8152600401610521906137ee565b60006115838461183c565b9050826000015180519060200120816000015180519060200120146115ba5760405162461bcd60e51b815260040161052190613832565b82602001516001600160401b031681602001516001600160401b0316146115f35760405162461bcd60e51b815260040161052190613876565b50505050565b60408051808201909152600080825260208201526000611621836001600160401b031661163b565b9050600061135a6005639904f2ff6051856000600161165e565b60606000611649604061188a565b905061165581846118ab565b6104e3816118bb565b6060478381101561169f5780846040517f8f0f4206000000000000000000000000000000000000000000000000000000008152600401610521929190613886565b60008073fe000000000000000000000000000000000000058987876116c55760006116c8565b60015b8b8b8f6040516020016116e0969594939291906138bb565b60408051601f19818403018152908290526116fa91612dc1565b600060405180830381855af49150503d8060008114611735576040519150601f19603f3d011682016040523d82523d6000602084013e61173a565b606091505b509150915081611776576040517f8a7db5bf00000000000000000000000000000000000000000000000000000000815260040160405180910390fd5b61177f816118e7565b9a9950505050505050505050565b60408051808201909152600080825260208201526000806117ae84826119f2565b92509050600281146117c2576117c261391c565b6117cc8483611a3e565b60079190910b845291506117e08483611a3e565b5060070b6020840152509092915050565b60006010611801600860026133d1565b61180c90602061366d565b611816919061366d565b611828836001600160401b0316611a8d565b61183291906133d1565b610356908361316a565b6040805180820190915260608152600060208201526000611865836001600160401b031661163b565b9050600061187f6005634505760a6051856000600161165e565b905061116c81611af2565b6118926123e4565b805161189e9083611b6e565b5060006020820152919050565b6118b782600083611be5565b5050565b606081602001516000146118e15760405162461bcd60e51b815260040161052190613966565b50515190565b60606000806000848060200190518101906119029190613976565b919450925090506001600160401b03821661193c5780511561193757604051630e74990760e01b815260040160405180910390fd5b6119b8565b6001600160401b0382166051148061195d57506001600160401b0382166071145b1561198457805160000361193757604051630e74990760e01b815260040160405180910390fd5b816040517ff1f6bced00000000000000000000000000000000000000000000000000000000815260040161052191906139d6565b821561116c57826040517fd4bb66710000000000000000000000000000000000000000000000000000000081526004016105219190612479565b600080600080611a028686611d03565b96509092506001600160401b0316905060ff8216600414611a355760405162461bcd60e51b815260040161052190613a18565b95939450505050565b600080600080611a4e8686611d03565b96509092506001600160401b0316905060ff821660011480611a71575060ff8216155b611a355760405162461bcd60e51b815260040161052190613a82565b600080611ada6010611aa1600860026133d1565b611aac90602061366d565b611ab6919061366d565b6001600160401b0316611acb61080086613a92565b611ad59190613a92565b611e80565b6001901b905060048110156103565750600492915050565b604080518082019091526060815260006020820152600080611b1484826119f2565b925090508015611b4e57611b288483611eb9565b9084529150611b378483612027565b6001600160401b0390911660208501529150611b67565b6040805160008082526020808301909352908552908401525b5050919050565b604080518082019091526060815260006020820152611b8e602083613aa6565b15611bb657611b9e602083613aa6565b611ba9906020613aba565b611bb390836136a8565b91505b602080840183905260405180855260008152908184010181811015611bda57600080fd5b604052509192915050565b6017816001600160401b031611611c0b5782516115f39060e0600585901b168317612068565b60ff816001600160401b031611611c4b578251611c33906018611fe0600586901b1617612068565b5082516115f3906001600160401b03831660016120d1565b61ffff816001600160401b031611611c8c578251611c74906019611fe0600586901b1617612068565b5082516115f3906001600160401b03831660026120d1565b63ffffffff816001600160401b031611611ccf578251611cb790601a611fe0600586901b1617612068565b5082516115f3906001600160401b03831660046120d1565b8251611ce690601b611fe0600586901b1617612068565b5082516115f3906001600160401b03831660086120d1565b505050565b600080600080611d138686612156565b9050611d206001866136a8565b94506007600582901c16601f8216601c8110611d4e5760405162461bcd60e51b815260040161052190613b27565b60188160ff161015611d6c5790945060ff169250849150611e799050565b8060ff16601803611dc9576000611d838989612156565b9050611d906001896136a8565b975060188160ff161015611db65760405162461bcd60e51b815260040161052190613b6b565b9195505060ff169250849150611e799050565b8060ff16601903611e03576000611de089896121a5565b9050611ded6002896136a8565b97509195505061ffff169250849150611e799050565b8060ff16601a03611e3f576000611e1a89896121de565b9050611e276004896136a8565b97509195505063ffffffff169250849150611e799050565b8060ff16601b14611e5257611e5261391c565b6000611e5e8989612217565b9050611e6b6008896136a8565b975091955090935085925050505b9250925092565b60006001826001600160401b031611611e9b57506000919050565b611eae611ea960018461316a565b612250565b610356906001613b7b565b60606000806000611eca8686611d03565b96509092506001600160401b0316905060ff821660061480611eef575060ff82166002145b611f0b5760405162461bcd60e51b815260040161052190613bf8565b60051960ff831601611f4457611f218686611d03565b96509092506001600160401b0316905060ff8216600214611f4457611f4461391c565b6000611f5082876136a8565b90506000826001600160401b03811115611f6c57611f6c612595565b6040519080825280601f01601f191660200182016040528015611f96576020820181803683370190505b5090506000875b8381101561200b57898181518110611fb757611fb7612e35565b602001015160f81c60f81b838381518110611fd457611fd4612e35565b60200101906001600160f81b031916908160001a90535081611ff581612e61565b925050808061200390612e61565b915050611f9d565b5081612017858a6136a8565b9650965050505050509250929050565b6000806000806120378686611d03565b96509092506001600160401b0316905060ff821615611a355760405162461bcd60e51b815260040161052190613c62565b604080518082019091526060815260006020820152825151600061208d8260016136a8565b9050846020015182106120ae576120ae856120a9836002613690565b61228f565b845160208382010185815381518311156120c6578282525b509495945050505050565b60408051808201909152606081526000602082015283515160006120f582856136a8565b9050856020015181111561211257612112866120a9836002613690565b6000600161212286610100613d80565b61212c9190613aba565b905086518281018783198251161781528151841115612149578382525b5096979650505050505050565b60006121638260016136a8565b835110156121835760405162461bcd60e51b815260040161052190613dc3565b82828151811061219557612195612e35565b016020015160f81c905092915050565b60006121b28260026136a8565b835110156121d25760405162461bcd60e51b815260040161052190613dc3565b50016020015160f01c90565b60006121eb8260046136a8565b8351101561220b5760405162461bcd60e51b815260040161052190613dc3565b50016020015160e01c90565b60006122248260086136a8565b835110156122445760405162461bcd60e51b815260040161052190613dc3565b50016020015160c01c90565b6000816001600160401b031660000361226b57506000919050565b6000612276836122a6565b90506001612285826040613aba565b6104e39190613aba565b815161229b8383611b6e565b506115f383826122bc565b60006122b1826122dd565b610356906040613aba565b6040805180820190915260608152600060208201526104e383838451612313565b6000805b6001600160401b03831615610356576001836001600160401b0316901c9250808061230b90612e61565b9150506122e1565b604080518082019091526060815260006020820152825182111561233657600080fd5b835151600061234584836136a8565b9050856020015181111561236257612362866120a9836002613690565b85518051838201602001916000918085111561237c578482525b505050602086015b602086106123bc578051825261239b6020836136a8565b91506123a86020826136a8565b90506123b5602087613aba565b9550612384565b51815160001960208890036101000a0190811690199190911617905250849150509392505050565b604051806040016040528061240c604051806040016040528060608152602001600081525090565b8152602001600081525090565b805b811461242657600080fd5b50565b803561035681612419565b6000806040838503121561244a5761244a600080fd5b60006124568585612429565b925050602061246785828601612429565b9150509250929050565b805b82525050565b602081016103568284612471565b60005b838110156124a257818101518382015260200161248a565b50506000910152565b60006124b5825190565b8084526020840193506124cc818560208601612487565b601f01601f19169290920192915050565b60006104e383836124ab565b60006124f3825190565b8084526020840193508360208202850161250d8560200190565b8060005b85811015612542578484038952815161252a85826124dd565b94506020830160209a909a0199925050600101612511565b5091979650505050505050565b602080825281016104e381846124e9565b600073ffffffffffffffffffffffffffffffffffffffff8216610356565b61247381612560565b60208101610356828461257e565b634e487b7160e01b600052604160045260246000fd5b601f19601f83011681018181106001600160401b03821117156125d0576125d0612595565b6040525050565b60006125e260405190565b90506125ee82826125ab565b919050565b60006001600160401b0382111561260c5761260c612595565b601f19601f83011660200192915050565b82818337506000910152565b600061263c612637846125f3565b6125d7565b90508281526020810184848401111561265757612657600080fd5b6109a984828561261d565b600082601f83011261267657612676600080fd5b8135610352848260208601612629565b60006020828403121561269b5761269b600080fd5b81356001600160401b038111156126b4576126b4600080fd5b61035284828501612662565b6001600160401b038116612473565b805160408301906126e084826126c0565b5060208201516115f360208501826126c0565b60006126ff83836126cf565b505060400190565b6000612711825190565b80845260209384019383018060005b838110156120c657815161273488826126f3565b975060208301925050600101612720565b602080825281016104e38184612707565b6001600160401b03811661241b565b803561035681612756565b60006001600160401b0382111561278957612789612595565b5060209081020190565b60006127a161263784612770565b838152905060208082019084028301858111156127c0576127c0600080fd5b835b818110156127e457806127d58882612429565b845250602092830192016127c2565b5050509392505050565b600082601f83011261280257612802600080fd5b8135610352848260208601612793565b60006040828403121561282757612827600080fd5b61283160406125d7565b9050600061283f8484612765565b82525060208201356001600160401b0381111561285e5761285e600080fd5b61286a848285016127ee565b60208301525092915050565b60008060006060848603121561288e5761288e600080fd5b83356001600160401b038111156128a7576128a7600080fd5b6128b386828701612812565b93505060206128c486828701612429565b92505060406128d586828701612429565b9150509250925092565b801515612473565b6020810161035682846128df565b60006040828403121561290a5761290a600080fd5b61291460406125d7565b905081356001600160401b0381111561292f5761292f600080fd5b61293b84828501612812565b82525060208201356001600160401b0381111561295a5761295a600080fd5b61286a84828501612812565b60006040828403121561297b5761297b600080fd5b61298560406125d7565b905081356001600160401b038111156129a0576129a0600080fd5b6129ac84828501612662565b825250602061286a84848301612765565b600080600080600060a086880312156129d8576129d8600080fd5b60006129e48888612429565b95505060206129f588828901612765565b9450506040612a0688828901612765565b93505060608601356001600160401b03811115612a2557612a25600080fd5b612a31888289016128f5565b92505060808601356001600160401b03811115612a5057612a50600080fd5b612a5c88828901612966565b9150509295509295909350565b8051604080845260009190840190612a8182826124ab565b91505060208301516109a960208601826126c0565b602080825281016104e38184612a69565b60008060408385031215612abd57612abd600080fd5b82356001600160401b03811115612ad657612ad6600080fd5b612ae285828601612662565b925050602061246785828601612765565b61241b81612560565b803561035681612af3565b600080600060608486031215612b1f57612b1f600080fd5b83356001600160401b03811115612b3857612b38600080fd5b612b4486828701612662565b9350506020612b5586828701612429565b92505060406128d586828701612afc565b60008060408385031215612b7c57612b7c600080fd5b82356001600160401b03811115612b9557612b95600080fd5b612ba1858286016128f5565b92505060208301356001600160401b03811115612bc057612bc0600080fd5b61246785828601612966565b60008060408385031215612be257612be2600080fd5b82356001600160401b03811115612bfb57612bfb600080fd5b61245685828601612812565b6fffffffffffffffffffffffffffffffff19811661241b565b803561035681612c07565b600060808284031215612c4057612c40600080fd5b612c4a60806125d7565b90506000612c588484612429565b8252506020612c6984848301612765565b6020830152506040612c7d84828501612765565b6040830152506060612c9184828501612c20565b60608301525092915050565b600060808284031215612cb257612cb2600080fd5b60006103528484612c2b565b602080825281016104e381846124ab565b6fffffffffffffffffffffffffffffffff198116612473565b602081016103568284612ccf565b600080600060608486031215612d0e57612d0e600080fd5b6000612d1a8686612765565b93505060208401356001600160401b03811115612d3957612d39600080fd5b612d45868287016128f5565b92505060408401356001600160401b03811115612d6457612d64600080fd5b6128d586828701612966565b80612473565b90565b6000612d858285612d70565b602082019150612d958284612d70565b5060200192915050565b6000612da9825190565b612db7818560208601612487565b9290920192915050565b60006104e38284612d9f565b805161035681612419565b600060208284031215612ded57612ded600080fd5b60006103528484612dcd565b634e487b7160e01b600052602260045260246000fd5b600281046001821680612e2357607f821691505b60208210810361043357610433612df9565b634e487b7160e01b600052603260045260246000fd5b634e487b7160e01b600052601160045260246000fd5b60006000198203612e7457612e74612e4b565b5060010190565b601d81526000602082017f44656c74612e636f6d706c6574653a20696e76616c6964207478206964000000815291505b5060200190565b6020808252810161035681612e7b565b6000612ece8383612471565b505060200190565b6000612ee0825190565b80845260209384019383018060005b838110156120c6578151612f038882612ec2565b975060208301925050600101612eef565b80516000906040840190612f2885826126c0565b50602083015184820360208601526107f88282612ed6565b8051604080845260009190840190612f588282612f14565b915050602083015184820360208601526107f88282612f14565b60408082528101612f838185612f40565b9050818103602083015261116c8184612a69565b6000612fa5612637846125f3565b905082815260208101848484011115612fc057612fc0600080fd5b6109a9848285612487565b600082601f830112612fdf57612fdf600080fd5b8151610352848260208601612f97565b805161035681612756565b60006040828403121561300f5761300f600080fd5b61301960406125d7565b82519091506001600160401b0381111561303557613035600080fd5b61304184828501612fcb565b825250602061286a84848301612fef565b60006020828403121561306757613067600080fd5b81516001600160401b0381111561308057613080600080fd5b61035284828501612ffa565b6000604082840312156130a1576130a1600080fd5b6130ab60406125d7565b905060006130418484612fef565b60006130c761263784612770565b838152905060208101604084028301858111156130e6576130e6600080fd5b835b818110156127e457806130fb888261308c565b8452506020909201916040016130e8565b600082601f83011261312057613120600080fd5b81516103528482602086016130b9565b60006020828403121561314557613145600080fd5b81516001600160401b0381111561315e5761315e600080fd5b6103528482850161310c565b6001600160401b0391821691908116908282039081111561035657610356612e4b565b6000610356612d768381565b6131a28361318d565b81546008840282811b60001990911b908116901990911617825550505050565b6000611cfe818484613199565b818110156118b7576131e26000826131c2565b6001016131cf565b601f821115611cfe576000818152602090206020601f850104810160208510156132115750805b6115156020601f8601048301826131cf565b81516001600160401b0381111561323c5761323c612595565b6132468254612e0f565b6132518282856131ea565b6020601f831160018114613285576000841561326d5750858201515b600019600886021c19811660028602178655506132de565b600085815260208120601f198616915b828110156132b55788850151825560209485019460019092019101613295565b868310156132d15784890151600019601f89166008021c191682555b6001600288020188555050505b505050505050565b608080825281016132f781876124ab565b90506133066020830186612471565b6133136040830185612471565b6107f8606083018461257e565b603681526000602082017f53697a65206f662070696563652070726f76696465642062792076657269666981527f6572206973206e6f7420706f776572206f662074776f00000000000000000000602082015291505b5060400190565b6020808252810161035681613320565b601681526000602082017f617373756d656453697a655061206f766572666c6f770000000000000000000081529150612eab565b602080825281016103568161338d565b60006001600160401b03821691506001600160401b03831692508183026001600160401b0381165b915080821461131157611311612e4b565b602981526000602082017f61676772656761746f722773206461746120636f6d6d69746d656e747320646f81527f6e2774206d61746368000000000000000000000000000000000000000000000060208201529150613376565b602080825281016103568161340a565b600060ff8216915060ff8316925081830260ff81166133f9565b601981526000602082017f617373756d656453697a655061753634206f766572666c6f770000000000000081529150612eab565b602080825281016103568161348e565b602481526000602082017f61676772656761746f72277320646174612073697a6520646f65736e2774206d81527f617463680000000000000000000000000000000000000000000000000000000060208201529150613376565b60208082528101610356816134d2565b60006020828403121561355157613551600080fd5b81516001600160401b0381111561356a5761356a600080fd5b61035284828501612fcb565b603a81526000602082017f6d65726b6c6570726f6f6673207769746820646570746873206772656174657281527f207468616e20363320617265206e6f7420737570706f7274656400000000000060208201529150613376565b6020808252810161035681613576565b602481526000602082017f696e6465782067726561746572207468616e207769647468206f66207468652081527f747265650000000000000000000000000000000000000000000000000000000060208201529150613376565b60208082528101610356816135e0565b6001600160401b0316600067fffffffffffffffe198201612e7457612e74612e4b565b6001600160401b0391821691908116908282019081111561035657610356612e4b565b81810280821583820485141761131157611311612e4b565b8082018082111561035657610356612e4b565b60ff91821691908116908282019081111561035657610356612e4b565b634e487b7160e01b600052601260045260246000fd5b601481526000602082017f696e6465784f6666736574206f766572666c6f7700000000000000000000000081529150612eab565b60208082528101610356816136ee565b601d81526000602082017f696e64657820656e7472792061742077726f6e6720706f736974696f6e00000081529150612eab565b6020808252810161035681613732565b601281526000602082017f4465616c206973207465726d696e61746564000000000000000000000000000081529150612eab565b6020808252810161035681613776565b601581526000602082017f4465616c206973206e6f7420616374697661746564000000000000000000000081529150612eab565b60208082528101610356816137ba565b601881526000602082017f4465616c20636f6d6d4420646f65736e2774206d61746368000000000000000081529150612eab565b60208082528101610356816137fe565b601781526000602082017f4465616c2073697a6520646f65736e2774206d6174636800000000000000000081529150612eab565b6020808252810161035681613842565b604081016138948285612471565b6104e36020830184612471565b60006001600160401b038216610356565b612473816138a1565b60c081016138c982896126c0565b6138d66020830188612471565b6138e360408301876126c0565b6138f060608301866126c0565b818103608083015261390281856124ab565b905061391160a08301846138b2565b979650505050505050565b634e487b7160e01b600052600160045260246000fd5b600c81526000602082017f496e76616c69642043424f52000000000000000000000000000000000000000081529150612eab565b6020808252810161035681613932565b60008060006060848603121561398e5761398e600080fd5b600061399a8686612dcd565b93505060206139ab86828701612fef565b92505060408401516001600160401b038111156139ca576139ca600080fd5b6128d586828701612fcb565b6020810161035682846126c0565b601f81526000602082017f696e76616c6964206d616a20286578706563746564204d616a4172726179290081529150612eab565b60208082528101610356816139e4565b603581526000602082017f696e76616c6964206d616a20286578706563746564204d616a5369676e65644981527f6e74206f72204d616a556e7369676e6564496e7429000000000000000000000060208201529150613376565b6020808252810161035681613a28565b600082613aa157613aa16136d8565b500490565b600082613ab557613ab56136d8565b500690565b8181038181111561035657610356612e4b565b602581526000602082017f63616e6e6f742068616e646c652068656164657273207769746820657874726181527f203e20323700000000000000000000000000000000000000000000000000000060208201529150613376565b6020808252810161035681613acd565b600c81526000602082017f696e76616c69642063626f72000000000000000000000000000000000000000081529150612eab565b6020808252810161035681613b37565b808201600082128015848312908116901591909116171561035657610356612e4b565b602e81526000602082017f696e76616c6964206d616a20286578706563746564204d616a546167206f722081527f4d616a42797465537472696e672900000000000000000000000000000000000060208201529150613376565b6020808252810161035681613b9e565b602581526000602082017f696e76616c6964206d616a20286578706563746564204d616a556e7369676e6581527f64496e742900000000000000000000000000000000000000000000000000000060208201529150613376565b6020808252810161035681613c08565b80825b6001851115613cb157808604811115613c9057613c90612e4b565b6001851615613c9e57908102905b8002613caa8560011c90565b9450613c75565b94509492505050565b600082613cc9575060016104e3565b81613cd6575060006104e3565b8160018114613cec5760028114613cf657613d23565b60019150506104e3565b60ff841115613d0757613d07612e4b565b8360020a915084821115613d1d57613d1d612e4b565b506104e3565b5060208310610133831016604e8410600b8410161715613d56575081810a83811115613d5157613d51612e4b565b6104e3565b613d638484846001613c72565b92509050818404811115613d7957613d79612e4b565b0292915050565b60006104e36000198484613cba565b601481526000602082017f736c6963696e67206f7574206f662072616e676500000000000000000000000081529150612eab565b6020808252810161035681613d8f56fea264697066735822122097145ee9e3ae0e17fab1a0940839c2b5e1d3ce8ef089c1f247f05b813275337264736f6c63430008110033696420696e7465676572207072696d617279206b65792c636f6e747269627574657220746578742c64616f20746578742c63696420746578742c6465736372697074696f6e20746578742c73746174757320696e7465676572",
  "linkReferences": {
    "contracts/data-segment/Cid.sol": {
      "Cid": [
        {
          "length": 20,
          "start": 17487
        },
        {
          "length": 20,
          "start": 18013
        }
      ]
    }
  },
  "deployedLinkReferences": {}
}