{
    "_format": "hh-sol-artifact-1",
    "contractName": "DealStatus",
    "sourceName": "contracts/DealStatus.sol",
    "abi": [
        {
            "inputs": [],
            "stateMutability": "nonpayable",
            "type": "constructor"
        },
        {
            "inputs": [
                {
                    "internalType": "int256",
                    "name": "errorCode",
                    "type": "int256"
                }
            ],
            "name": "ActorError",
            "type": "error"
        },
        {
            "inputs": [],
            "name": "FailToCallActor",
            "type": "error"
        },
        {
            "inputs": [
                {
                    "internalType": "uint64",
                    "name": "",
                    "type": "uint64"
                }
            ],
            "name": "InvalidCodec",
            "type": "error"
        },
        {
            "inputs": [],
            "name": "InvalidResponseLength",
            "type": "error"
        },
        {
            "inputs": [
                {
                    "internalType": "uint256",
                    "name": "balance",
                    "type": "uint256"
                },
                {
                    "internalType": "uint256",
                    "name": "value",
                    "type": "uint256"
                }
            ],
            "name": "NotEnoughBalance",
            "type": "error"
        },
        {
            "anonymous": false,
            "inputs": [
                {
                    "indexed": true,
                    "internalType": "uint256",
                    "name": "id",
                    "type": "uint256"
                },
                {
                    "indexed": true,
                    "internalType": "uint64",
                    "name": "dealId",
                    "type": "uint64"
                }
            ],
            "name": "CompleteAggregatorRequest",
            "type": "event"
        },
        {
            "anonymous": false,
            "inputs": [
                {
                    "indexed": true,
                    "internalType": "uint256",
                    "name": "id",
                    "type": "uint256"
                },
                {
                    "indexed": false,
                    "internalType": "bytes",
                    "name": "cid",
                    "type": "bytes"
                }
            ],
            "name": "SubmitAggregatorRequest",
            "type": "event"
        },
        {
            "anonymous": false,
            "inputs": [
                {
                    "indexed": false,
                    "internalType": "bytes",
                    "name": "cid",
                    "type": "bytes"
                },
                {
                    "indexed": false,
                    "internalType": "uint256",
                    "name": "transactionId",
                    "type": "uint256"
                },
                {
                    "indexed": false,
                    "internalType": "uint256",
                    "name": "jobType",
                    "type": "uint256"
                },
                {
                    "indexed": false,
                    "internalType": "address",
                    "name": "dao",
                    "type": "address"
                }
            ],
            "name": "SubmitFromDao",
            "type": "event"
        },
        {
            "inputs": [
                {
                    "internalType": "bytes",
                    "name": "cid",
                    "type": "bytes"
                },
                {
                    "internalType": "uint256",
                    "name": "jobType",
                    "type": "uint256"
                },
                {
                    "internalType": "address",
                    "name": "dao",
                    "type": "address"
                }
            ],
            "name": "approvedByDao",
            "outputs": [],
            "stateMutability": "nonpayable",
            "type": "function"
        },
        {
            "inputs": [
                {
                    "internalType": "uint256",
                    "name": "_id",
                    "type": "uint256"
                },
                {
                    "internalType": "uint64",
                    "name": "_dealId",
                    "type": "uint64"
                },
                {
                    "internalType": "uint64",
                    "name": "_minerId",
                    "type": "uint64"
                },
                {
                    "components": [
                        {
                            "components": [
                                {
                                    "internalType": "uint64",
                                    "name": "index",
                                    "type": "uint64"
                                },
                                {
                                    "internalType": "bytes32[]",
                                    "name": "path",
                                    "type": "bytes32[]"
                                }
                            ],
                            "internalType": "struct ProofData",
                            "name": "proofSubtree",
                            "type": "tuple"
                        },
                        {
                            "components": [
                                {
                                    "internalType": "uint64",
                                    "name": "index",
                                    "type": "uint64"
                                },
                                {
                                    "internalType": "bytes32[]",
                                    "name": "path",
                                    "type": "bytes32[]"
                                }
                            ],
                            "internalType": "struct ProofData",
                            "name": "proofIndex",
                            "type": "tuple"
                        }
                    ],
                    "internalType": "struct InclusionProof",
                    "name": "_proof",
                    "type": "tuple"
                },
                {
                    "components": [
                        {
                            "internalType": "bytes",
                            "name": "commPc",
                            "type": "bytes"
                        },
                        {
                            "internalType": "uint64",
                            "name": "sizePc",
                            "type": "uint64"
                        }
                    ],
                    "internalType": "struct InclusionVerifierData",
                    "name": "_verifierData",
                    "type": "tuple"
                }
            ],
            "name": "complete",
            "outputs": [
                {
                    "components": [
                        {
                            "internalType": "bytes",
                            "name": "commPa",
                            "type": "bytes"
                        },
                        {
                            "internalType": "uint64",
                            "name": "sizePa",
                            "type": "uint64"
                        }
                    ],
                    "internalType": "struct InclusionAuxData",
                    "name": "",
                    "type": "tuple"
                }
            ],
            "stateMutability": "nonpayable",
            "type": "function"
        },
        {
            "inputs": [
                {
                    "components": [
                        {
                            "internalType": "bytes32",
                            "name": "commDs",
                            "type": "bytes32"
                        },
                        {
                            "internalType": "uint64",
                            "name": "offset",
                            "type": "uint64"
                        },
                        {
                            "internalType": "uint64",
                            "name": "size",
                            "type": "uint64"
                        },
                        {
                            "internalType": "bytes16",
                            "name": "checksum",
                            "type": "bytes16"
                        }
                    ],
                    "internalType": "struct SegmentDesc",
                    "name": "_sd",
                    "type": "tuple"
                }
            ],
            "name": "computeChecksum",
            "outputs": [
                {
                    "internalType": "bytes16",
                    "name": "",
                    "type": "bytes16"
                }
            ],
            "stateMutability": "pure",
            "type": "function"
        },
        {
            "inputs": [
                {
                    "components": [
                        {
                            "components": [
                                {
                                    "internalType": "uint64",
                                    "name": "index",
                                    "type": "uint64"
                                },
                                {
                                    "internalType": "bytes32[]",
                                    "name": "path",
                                    "type": "bytes32[]"
                                }
                            ],
                            "internalType": "struct ProofData",
                            "name": "proofSubtree",
                            "type": "tuple"
                        },
                        {
                            "components": [
                                {
                                    "internalType": "uint64",
                                    "name": "index",
                                    "type": "uint64"
                                },
                                {
                                    "internalType": "bytes32[]",
                                    "name": "path",
                                    "type": "bytes32[]"
                                }
                            ],
                            "internalType": "struct ProofData",
                            "name": "proofIndex",
                            "type": "tuple"
                        }
                    ],
                    "internalType": "struct InclusionProof",
                    "name": "ip",
                    "type": "tuple"
                },
                {
                    "components": [
                        {
                            "internalType": "bytes",
                            "name": "commPc",
                            "type": "bytes"
                        },
                        {
                            "internalType": "uint64",
                            "name": "sizePc",
                            "type": "uint64"
                        }
                    ],
                    "internalType": "struct InclusionVerifierData",
                    "name": "verifierData",
                    "type": "tuple"
                }
            ],
            "name": "computeExpectedAuxData",
            "outputs": [
                {
                    "components": [
                        {
                            "internalType": "bytes",
                            "name": "commPa",
                            "type": "bytes"
                        },
                        {
                            "internalType": "uint64",
                            "name": "sizePa",
                            "type": "uint64"
                        }
                    ],
                    "internalType": "struct InclusionAuxData",
                    "name": "",
                    "type": "tuple"
                }
            ],
            "stateMutability": "pure",
            "type": "function"
        },
        {
            "inputs": [
                {
                    "internalType": "uint64",
                    "name": "dealId",
                    "type": "uint64"
                },
                {
                    "components": [
                        {
                            "components": [
                                {
                                    "internalType": "uint64",
                                    "name": "index",
                                    "type": "uint64"
                                },
                                {
                                    "internalType": "bytes32[]",
                                    "name": "path",
                                    "type": "bytes32[]"
                                }
                            ],
                            "internalType": "struct ProofData",
                            "name": "proofSubtree",
                            "type": "tuple"
                        },
                        {
                            "components": [
                                {
                                    "internalType": "uint64",
                                    "name": "index",
                                    "type": "uint64"
                                },
                                {
                                    "internalType": "bytes32[]",
                                    "name": "path",
                                    "type": "bytes32[]"
                                }
                            ],
                            "internalType": "struct ProofData",
                            "name": "proofIndex",
                            "type": "tuple"
                        }
                    ],
                    "internalType": "struct InclusionProof",
                    "name": "ip",
                    "type": "tuple"
                },
                {
                    "components": [
                        {
                            "internalType": "bytes",
                            "name": "commPc",
                            "type": "bytes"
                        },
                        {
                            "internalType": "uint64",
                            "name": "sizePc",
                            "type": "uint64"
                        }
                    ],
                    "internalType": "struct InclusionVerifierData",
                    "name": "verifierData",
                    "type": "tuple"
                }
            ],
            "name": "computeExpectedAuxDataWithDeal",
            "outputs": [
                {
                    "components": [
                        {
                            "internalType": "bytes",
                            "name": "commPa",
                            "type": "bytes"
                        },
                        {
                            "internalType": "uint64",
                            "name": "sizePa",
                            "type": "uint64"
                        }
                    ],
                    "internalType": "struct InclusionAuxData",
                    "name": "",
                    "type": "tuple"
                }
            ],
            "stateMutability": "nonpayable",
            "type": "function"
        },
        {
            "inputs": [
                {
                    "internalType": "bytes32",
                    "name": "left",
                    "type": "bytes32"
                },
                {
                    "internalType": "bytes32",
                    "name": "right",
                    "type": "bytes32"
                }
            ],
            "name": "computeNode",
            "outputs": [
                {
                    "internalType": "bytes32",
                    "name": "",
                    "type": "bytes32"
                }
            ],
            "stateMutability": "pure",
            "type": "function"
        },
        {
            "inputs": [
                {
                    "components": [
                        {
                            "internalType": "uint64",
                            "name": "index",
                            "type": "uint64"
                        },
                        {
                            "internalType": "bytes32[]",
                            "name": "path",
                            "type": "bytes32[]"
                        }
                    ],
                    "internalType": "struct ProofData",
                    "name": "d",
                    "type": "tuple"
                },
                {
                    "internalType": "bytes32",
                    "name": "subtree",
                    "type": "bytes32"
                }
            ],
            "name": "computeRoot",
            "outputs": [
                {
                    "internalType": "bytes32",
                    "name": "",
                    "type": "bytes32"
                }
            ],
            "stateMutability": "pure",
            "type": "function"
        },
        {
            "inputs": [],
            "name": "daopia",
            "outputs": [
                {
                    "internalType": "address",
                    "name": "",
                    "type": "address"
                }
            ],
            "stateMutability": "view",
            "type": "function"
        },
        {
            "inputs": [
                {
                    "internalType": "bytes",
                    "name": "_cid",
                    "type": "bytes"
                }
            ],
            "name": "getActiveDeals",
            "outputs": [
                {
                    "components": [
                        {
                            "internalType": "uint64",
                            "name": "dealId",
                            "type": "uint64"
                        },
                        {
                            "internalType": "uint64",
                            "name": "minerId",
                            "type": "uint64"
                        }
                    ],
                    "internalType": "struct IAggregatorOracle.Deal[]",
                    "name": "",
                    "type": "tuple[]"
                }
            ],
            "stateMutability": "nonpayable",
            "type": "function"
        },
        {
            "inputs": [],
            "name": "getAllCIDs",
            "outputs": [
                {
                    "internalType": "bytes[]",
                    "name": "",
                    "type": "bytes[]"
                }
            ],
            "stateMutability": "view",
            "type": "function"
        },
        {
            "inputs": [
                {
                    "internalType": "bytes",
                    "name": "_cid",
                    "type": "bytes"
                }
            ],
            "name": "getAllDeals",
            "outputs": [
                {
                    "components": [
                        {
                            "internalType": "uint64",
                            "name": "dealId",
                            "type": "uint64"
                        },
                        {
                            "internalType": "uint64",
                            "name": "minerId",
                            "type": "uint64"
                        }
                    ],
                    "internalType": "struct IAggregatorOracle.Deal[]",
                    "name": "",
                    "type": "tuple[]"
                }
            ],
            "stateMutability": "view",
            "type": "function"
        },
        {
            "inputs": [
                {
                    "internalType": "bytes",
                    "name": "_cid",
                    "type": "bytes"
                },
                {
                    "internalType": "uint64",
                    "name": "epochs",
                    "type": "uint64"
                }
            ],
            "name": "getExpiringDeals",
            "outputs": [
                {
                    "components": [
                        {
                            "internalType": "uint64",
                            "name": "dealId",
                            "type": "uint64"
                        },
                        {
                            "internalType": "uint64",
                            "name": "minerId",
                            "type": "uint64"
                        }
                    ],
                    "internalType": "struct IAggregatorOracle.Deal[]",
                    "name": "",
                    "type": "tuple[]"
                }
            ],
            "stateMutability": "nonpayable",
            "type": "function"
        },
        {
            "inputs": [
                {
                    "internalType": "bytes32",
                    "name": "left",
                    "type": "bytes32"
                },
                {
                    "internalType": "bytes32",
                    "name": "right",
                    "type": "bytes32"
                }
            ],
            "name": "hashNode",
            "outputs": [
                {
                    "internalType": "bytes32",
                    "name": "",
                    "type": "bytes32"
                }
            ],
            "stateMutability": "pure",
            "type": "function"
        },
        {
            "inputs": [
                {
                    "components": [
                        {
                            "internalType": "bytes32",
                            "name": "commDs",
                            "type": "bytes32"
                        },
                        {
                            "internalType": "uint64",
                            "name": "offset",
                            "type": "uint64"
                        },
                        {
                            "internalType": "uint64",
                            "name": "size",
                            "type": "uint64"
                        },
                        {
                            "internalType": "bytes16",
                            "name": "checksum",
                            "type": "bytes16"
                        }
                    ],
                    "internalType": "struct SegmentDesc",
                    "name": "sd",
                    "type": "tuple"
                }
            ],
            "name": "serialize",
            "outputs": [
                {
                    "internalType": "bytes",
                    "name": "",
                    "type": "bytes"
                }
            ],
            "stateMutability": "pure",
            "type": "function"
        },
        {
            "inputs": [
                {
                    "internalType": "bytes",
                    "name": "_cid",
                    "type": "bytes"
                }
            ],
            "name": "submit",
            "outputs": [
                {
                    "internalType": "uint256",
                    "name": "",
                    "type": "uint256"
                }
            ],
            "stateMutability": "nonpayable",
            "type": "function"
        },
        {
            "inputs": [
                {
                    "internalType": "bytes",
                    "name": "data",
                    "type": "bytes"
                }
            ],
            "name": "truncatedHash",
            "outputs": [
                {
                    "internalType": "bytes32",
                    "name": "",
                    "type": "bytes32"
                }
            ],
            "stateMutability": "pure",
            "type": "function"
        },
        {
            "inputs": [
                {
                    "components": [
                        {
                            "internalType": "uint64",
                            "name": "index",
                            "type": "uint64"
                        },
                        {
                            "internalType": "bytes32[]",
                            "name": "path",
                            "type": "bytes32[]"
                        }
                    ],
                    "internalType": "struct ProofData",
                    "name": "proof",
                    "type": "tuple"
                },
                {
                    "internalType": "bytes32",
                    "name": "root",
                    "type": "bytes32"
                },
                {
                    "internalType": "bytes32",
                    "name": "leaf",
                    "type": "bytes32"
                }
            ],
            "name": "verify",
            "outputs": [
                {
                    "internalType": "bool",
                    "name": "",
                    "type": "bool"
                }
            ],
            "stateMutability": "pure",
            "type": "function"
        }
    ],
    "bytecode": "0x608060405234801561001057600080fd5b5060008055600180546001600160a01b03191633179055613e09806100366000396000f3fe608060405234801561001057600080fd5b506004361061011b5760003560e01c8063af955b41116100b2578063c57e0dbb11610081578063db90035111610066578063db9003511461029f578063ef7fa71b146102b2578063f5034301146102c557600080fd5b8063c57e0dbb1461026c578063c914f6131461028c57600080fd5b8063af955b4114610211578063bdfd01ed14610226578063bfb7dc7414610239578063c024f4cc1461024c57600080fd5b806351362bfe116100ee57806351362bfe146101ab57806360b93184146101cb5780636ba9dd1f146101eb57806381bcd88c146101fe57600080fd5b80631b93f2cb146101205780633410e7ce1461014957806338d122421461015e578063496a9d211461018b575b600080fd5b61013361012e366004612434565b6102d8565b6040516101409190612479565b60405180910390f35b61015161035c565b604051610140919061254f565b60015461017e9073ffffffffffffffffffffffffffffffffffffffff1681565b6040516101409190612587565b61019e610199366004612686565b610439565b6040516101409190612745565b6101be6101b9366004612876565b6104d2565b60405161014091906128e7565b6101de6101d93660046129bd565b6104ea565b6040516101409190612a96565b6101336101f9366004612434565b610801565b61019e61020c366004612aa7565b61087f565b61022461021f366004612b07565b6109b1565b005b6101de610234366004612b66565b610a23565b610133610247366004612bcc565b610d2a565b61025f61025a366004612c9d565b610e45565b6040516101409190612cbe565b61027f61027a366004612c9d565b61103a565b6040516101409190612ce8565b61013361029a366004612686565b6110c4565b6101de6102ad366004612cf6565b61113f565b6101336102c0366004612686565b611174565b61019e6102d3366004612686565b6111e4565b600080600284846040516020016102f0929190612d79565b60408051601f198184030181529082905261030a91612dc1565b602060405180830381855afa158015610327573d6000803e3d6000fd5b5050506040513d601f19601f8201168201806040525081019061034a9190612dd8565b905060c01981165b9150505b92915050565b60608060005b600054811015610433576000818152600260205260409020805461038590612e0f565b80601f01602080910402602001604051908101604052809291908181526020018280546103b190612e0f565b80156103fe5780601f106103d3576101008083540402835291602001916103fe565b820191906000526020600020905b8154815290600101906020018083116103e157829003601f168201915b505050505082828151811061041557610415612e35565b6020026020010181905250808061042b90612e61565b915050610362565b50919050565b606060038260405161044b9190612dc1565b9081526020016040518091039020805480602002602001604051908101604052809291908181526020016000905b828210156104c757600084815260209081902060408051808201909152908401546001600160401b038082168352680100000000000000009091041681830152825260019092019101610479565b505050509050919050565b6000826104df8584610d2a565b1490505b9392505050565b60408051808201909152606081526000602082015260005486111561052a5760405162461bcd60e51b815260040161052190612eb2565b60405180910390fd5b6040516001600160401b0386169087907ffcfb278ce1c62d14ce854540f204ef9fc7d58f09adc7bd773da126dd906bb98090600090a36000868152600260205260408120805461057990612e0f565b80601f01602080910402602001604051908101604052809291908181526020018280546105a590612e0f565b80156105f25780601f106105c7576101008083540402835291602001916105f2565b820191906000526020600020905b8154815290600101906020018083116105d557829003601f168201915b5050505050905060005b60038260405161060c9190612dc1565b908152604051908190036020019020548110156106fb57866001600160401b031660038360405161063d9190612dc1565b9081526020016040518091039020828154811061065c5761065c612e35565b6000918252602090912001546001600160401b0316036106e95760405163bdfd01ed60e01b8152309063bdfd01ed9061069b9088908890600401612f72565b600060405180830381865afa1580156106b8573d6000803e3d6000fd5b505050506040513d6000823e601f3d908101601f191682016040526106e09190810190613052565b925050506107f8565b806106f381612e61565b9150506105fc565b506040805180820182526001600160401b038089168252871660208201529051600390610729908490612dc1565b90815260405190819003602090810182208054600181018255600091825290829020845191018054928501516001600160401b0390811668010000000000000000026fffffffffffffffffffffffffffffffff1990941692169190911791909117905563bdfd01ed60e01b8152309063bdfd01ed906107ae9088908890600401612f72565b600060405180830381865afa1580156107cb573d6000803e3d6000fd5b505050506040513d6000823e601f3d908101601f191682016040526107f39190810190613052565b925050505b95945050505050565b60008060028484604051602001610819929190612d79565b60408051601f198184030181529082905261083391612dc1565b602060405180830381855afa158015610850573d6000803e3d6000fd5b5050506040513d601f19601f820116820180604052508101906108739190612dd8565b60c01916949350505050565b60405163496a9d2160e01b81526060908190309063496a9d21906108a7908790600401612cbe565b600060405180830381865afa1580156108c4573d6000803e3d6000fd5b505050506040513d6000823e601f3d908101601f191682016040526108ec9190810190613130565b905060005b81518110156109a957600082828151811061090e5761090e612e35565b6020026020010151600001519050600061092782611318565b9050858160200151610939919061316a565b6001600160401b03164210156109945783838151811061095b5761095b612e35565b60200260200101610991604051806040016040528060006001600160401b0316815260200160006001600160401b031681525090565b90525b505080806109a190612e61565b9150506108f1565b509392505050565b6000805490806109c083612e61565b90915550506000805481526002602052604090206109de8482613223565b507fe28c401ebbc2835851e3c48b0857e92dcba5d261df5cadada9f0e2b602771925836000548484604051610a1694939291906132e6565b60405180910390a1505050565b604080518082019091526060815260006020820152610a458260200151611365565b610a615760405162461bcd60e51b81526004016105219061337d565b81516040517f1a57c81c00000000000000000000000000000000000000000000000000000000815260009173__$cf8b38afb45d8bc07c2c2ef429763fb9a3$__91631a57c81c91610ab491600401612cbe565b602060405180830381865af4158015610ad1573d6000803e3d6000fd5b505050506040513d601f19601f82011682018060405250810190610af59190612dd8565b90506000610b07856000015183610d2a565b9050600080610b39876000015160200151516001600160401b031660016001600160401b0316901b87602001516113a0565b9150915081610b5a5760405162461bcd60e51b8152600401610521906133c1565b6020860151875151600091610b6e916133d1565b90506000610b8f604051806020016040528088815250838a6020015161140c565b90506000610b9f61029a83610e45565b90506000610bb18b6020015183610d2a565b9050808714610bd25760405162461bcd60e51b815260040161052190613464565b600080610c0e8d6020015160200151516001600160401b031660016001600160401b0316901b60206002610c069190613474565b60ff166113a0565b9150915081610c2f5760405162461bcd60e51b8152600401610521906134c2565b806001600160401b0316876001600160401b031614610c605760405162461bcd60e51b81526004016105219061352c565b610c6a8d82611498565b60408051808201918290527f7a2ffb01000000000000000000000000000000000000000000000000000000009091528073__$cf8b38afb45d8bc07c2c2ef429763fb9a3$__637a2ffb01610cc18d60448501612479565b600060405180830381865af4158015610cde573d6000803e3d6000fd5b505050506040513d6000823e601f3d908101601f19168201604052610d06919081019061353c565b8152602001886001600160401b03168152509a505050505050505050505092915050565b6000604083602001515110610d515760405162461bcd60e51b8152600401610521906135d0565b60208301515183516001600160401b0390811690911c1615610d855760405162461bcd60e51b81526004016105219061363a565b825182906000805b866020015151816001600160401b03161015610e3a57600183811c677fffffffffffffff169381169250829003610df557610dee8760200151826001600160401b031681518110610de057610de0612e35565b6020026020010151856102d8565b9350610e28565b610e25848860200151836001600160401b031681518110610e1857610e18612e35565b60200260200101516102d8565b93505b80610e328161364a565b915050610d8d565b509195945050505050565b606060006010610e57600860026133d1565b610e6290602061366d565b610e6c919061366d565b6001600160401b03166001600160401b03811115610e8c57610e8c612595565b6040519080825280601f01601f191660200182016040528015610eb6576020820181803683370190505b5083516020820181905290915060005b6008811015610f3757610eda816008613690565b85602001516001600160401b0316901c60f81b8382602060ff16610efe91906136a8565b81518110610f0e57610f0e612e35565b60200101906001600160f81b031916908160001a90535080610f2f81612e61565b915050610ec6565b5060005b6008811015610fb657610f4f816008613690565b60408601516001600160401b0316901c60f81b8382610f70602060086136bb565b60ff16610f7d91906136a8565b81518110610f8d57610f8d612e35565b60200101906001600160f81b031916908160001a90535080610fae81612e61565b915050610f3b565b5060005b60108110156110315784606001518160108110610fd957610fd9612e35565b1a60f81b8382610feb602060106136bb565b60ff16610ff891906136a8565b8151811061100857611008612e35565b60200101906001600160f81b031916908160001a9053508061102981612e61565b915050610fba565b50909392505050565b60008061104683610e45565b9050600060028260405161105a9190612dc1565b602060405180830381855afa158015611077573d6000803e3d6000fd5b5050506040513d601f19601f8201168201806040525081019061109a9190612dd8565b7fffffffffffffffffffffffffffffff3f0000000000000000000000000000000016949350505050565b6000806002836040516020016110da9190612dc1565b60408051601f19818403018152908290526110f491612dc1565b602060405180830381855afa158015611111573d6000803e3d6000fd5b5050506040513d601f19601f820116820180604052508101906111349190612dd8565b60c019169392505050565b60408051808201909152606081526000602082015260006111608484610a23565b905061116c858261151c565b949350505050565b60008054818061118383612e61565b90915550506000805481526002602052604090206111a18382613223565b506000547f104e370246a6acb34978d26af9fb437cb9f46e15e94cc27f24f305528db420a1836040516111d49190612cbe565b60405180910390a2505060005490565b60405163496a9d2160e01b81526060908190309063496a9d219061120c908690600401612cbe565b600060405180830381865afa158015611229573d6000803e3d6000fd5b505050506040513d6000823e601f3d908101601f191682016040526112519190810190613130565b905060005b815181101561131157600082828151811061127357611273612e35565b6020026020010151600001519050600061128c826115f9565b90506000816020015160070b13806112ac5750806000015160070b600019145b156112fc578383815181106112c3576112c3612e35565b602002602001016112f9604051806040016040528060006001600160401b0316815260200160006001600160401b031681525090565b90525b5050808061130990612e61565b915050611256565b5092915050565b60408051808201909152600080825260208201526000611340836001600160401b031661163b565b9050600061135a60056309c30b206051856000600161165e565b905061116c8161178d565b6000816001600160401b031660000361138057506001919050565b61138b60018361316a565b82166001600160401b03166000149050919050565b600080836001600160401b03166000036113c05750600190506000611405565b8383026001600160401b0380851690808716908316816113e2576113e26136d8565b046001600160401b0316146113fe576000809250925050611405565b6001925090505b9250929050565b604080516080810182526000808252602082018190529181018290526060810191909152604080516080810182526000808252602082018190529181018290526060810191909152845181526001600160401b038085166020830152831660408201526114788161103a565b6fffffffffffffffffffffffffffffffff19166060820152949350505050565b60006114a3826117f1565b90506000806114c285602001516000015160206002610c069190613474565b91509150816114e35760405162461bcd60e51b815260040161052190613722565b826001600160401b0316816001600160401b031610156115155760405162461bcd60e51b815260040161052190613766565b5050505050565b6000611527836115f9565b90506000816020015160070b13156115515760405162461bcd60e51b8152600401610521906137aa565b6000816000015160070b136115785760405162461bcd60e51b8152600401610521906137ee565b60006115838461183c565b9050826000015180519060200120816000015180519060200120146115ba5760405162461bcd60e51b815260040161052190613832565b82602001516001600160401b031681602001516001600160401b0316146115f35760405162461bcd60e51b815260040161052190613876565b50505050565b60408051808201909152600080825260208201526000611621836001600160401b031661163b565b9050600061135a6005639904f2ff6051856000600161165e565b60606000611649604061188a565b905061165581846118ab565b6104e3816118bb565b6060478381101561169f5780846040517f8f0f4206000000000000000000000000000000000000000000000000000000008152600401610521929190613886565b60008073fe000000000000000000000000000000000000058987876116c55760006116c8565b60015b8b8b8f6040516020016116e0969594939291906138bb565b60408051601f19818403018152908290526116fa91612dc1565b600060405180830381855af49150503d8060008114611735576040519150601f19603f3d011682016040523d82523d6000602084013e61173a565b606091505b509150915081611776576040517f8a7db5bf00000000000000000000000000000000000000000000000000000000815260040160405180910390fd5b61177f816118e7565b9a9950505050505050505050565b60408051808201909152600080825260208201526000806117ae84826119f2565b92509050600281146117c2576117c261391c565b6117cc8483611a3e565b60079190910b845291506117e08483611a3e565b5060070b6020840152509092915050565b60006010611801600860026133d1565b61180c90602061366d565b611816919061366d565b611828836001600160401b0316611a8d565b61183291906133d1565b610356908361316a565b6040805180820190915260608152600060208201526000611865836001600160401b031661163b565b9050600061187f6005634505760a6051856000600161165e565b905061116c81611af2565b6118926123e4565b805161189e9083611b6e565b5060006020820152919050565b6118b782600083611be5565b5050565b606081602001516000146118e15760405162461bcd60e51b815260040161052190613966565b50515190565b60606000806000848060200190518101906119029190613976565b919450925090506001600160401b03821661193c5780511561193757604051630e74990760e01b815260040160405180910390fd5b6119b8565b6001600160401b0382166051148061195d57506001600160401b0382166071145b1561198457805160000361193757604051630e74990760e01b815260040160405180910390fd5b816040517ff1f6bced00000000000000000000000000000000000000000000000000000000815260040161052191906139d6565b821561116c57826040517fd4bb66710000000000000000000000000000000000000000000000000000000081526004016105219190612479565b600080600080611a028686611d03565b96509092506001600160401b0316905060ff8216600414611a355760405162461bcd60e51b815260040161052190613a18565b95939450505050565b600080600080611a4e8686611d03565b96509092506001600160401b0316905060ff821660011480611a71575060ff8216155b611a355760405162461bcd60e51b815260040161052190613a82565b600080611ada6010611aa1600860026133d1565b611aac90602061366d565b611ab6919061366d565b6001600160401b0316611acb61080086613a92565b611ad59190613a92565b611e80565b6001901b905060048110156103565750600492915050565b604080518082019091526060815260006020820152600080611b1484826119f2565b925090508015611b4e57611b288483611eb9565b9084529150611b378483612027565b6001600160401b0390911660208501529150611b67565b6040805160008082526020808301909352908552908401525b5050919050565b604080518082019091526060815260006020820152611b8e602083613aa6565b15611bb657611b9e602083613aa6565b611ba9906020613aba565b611bb390836136a8565b91505b602080840183905260405180855260008152908184010181811015611bda57600080fd5b604052509192915050565b6017816001600160401b031611611c0b5782516115f39060e0600585901b168317612068565b60ff816001600160401b031611611c4b578251611c33906018611fe0600586901b1617612068565b5082516115f3906001600160401b03831660016120d1565b61ffff816001600160401b031611611c8c578251611c74906019611fe0600586901b1617612068565b5082516115f3906001600160401b03831660026120d1565b63ffffffff816001600160401b031611611ccf578251611cb790601a611fe0600586901b1617612068565b5082516115f3906001600160401b03831660046120d1565b8251611ce690601b611fe0600586901b1617612068565b5082516115f3906001600160401b03831660086120d1565b505050565b600080600080611d138686612156565b9050611d206001866136a8565b94506007600582901c16601f8216601c8110611d4e5760405162461bcd60e51b815260040161052190613b27565b60188160ff161015611d6c5790945060ff169250849150611e799050565b8060ff16601803611dc9576000611d838989612156565b9050611d906001896136a8565b975060188160ff161015611db65760405162461bcd60e51b815260040161052190613b6b565b9195505060ff169250849150611e799050565b8060ff16601903611e03576000611de089896121a5565b9050611ded6002896136a8565b97509195505061ffff169250849150611e799050565b8060ff16601a03611e3f576000611e1a89896121de565b9050611e276004896136a8565b97509195505063ffffffff169250849150611e799050565b8060ff16601b14611e5257611e5261391c565b6000611e5e8989612217565b9050611e6b6008896136a8565b975091955090935085925050505b9250925092565b60006001826001600160401b031611611e9b57506000919050565b611eae611ea960018461316a565b612250565b610356906001613b7b565b60606000806000611eca8686611d03565b96509092506001600160401b0316905060ff821660061480611eef575060ff82166002145b611f0b5760405162461bcd60e51b815260040161052190613bf8565b60051960ff831601611f4457611f218686611d03565b96509092506001600160401b0316905060ff8216600214611f4457611f4461391c565b6000611f5082876136a8565b90506000826001600160401b03811115611f6c57611f6c612595565b6040519080825280601f01601f191660200182016040528015611f96576020820181803683370190505b5090506000875b8381101561200b57898181518110611fb757611fb7612e35565b602001015160f81c60f81b838381518110611fd457611fd4612e35565b60200101906001600160f81b031916908160001a90535081611ff581612e61565b925050808061200390612e61565b915050611f9d565b5081612017858a6136a8565b9650965050505050509250929050565b6000806000806120378686611d03565b96509092506001600160401b0316905060ff821615611a355760405162461bcd60e51b815260040161052190613c62565b604080518082019091526060815260006020820152825151600061208d8260016136a8565b9050846020015182106120ae576120ae856120a9836002613690565b61228f565b845160208382010185815381518311156120c6578282525b509495945050505050565b60408051808201909152606081526000602082015283515160006120f582856136a8565b9050856020015181111561211257612112866120a9836002613690565b6000600161212286610100613d80565b61212c9190613aba565b905086518281018783198251161781528151841115612149578382525b5096979650505050505050565b60006121638260016136a8565b835110156121835760405162461bcd60e51b815260040161052190613dc3565b82828151811061219557612195612e35565b016020015160f81c905092915050565b60006121b28260026136a8565b835110156121d25760405162461bcd60e51b815260040161052190613dc3565b50016020015160f01c90565b60006121eb8260046136a8565b8351101561220b5760405162461bcd60e51b815260040161052190613dc3565b50016020015160e01c90565b60006122248260086136a8565b835110156122445760405162461bcd60e51b815260040161052190613dc3565b50016020015160c01c90565b6000816001600160401b031660000361226b57506000919050565b6000612276836122a6565b90506001612285826040613aba565b6104e39190613aba565b815161229b8383611b6e565b506115f383826122bc565b60006122b1826122dd565b610356906040613aba565b6040805180820190915260608152600060208201526104e383838451612313565b6000805b6001600160401b03831615610356576001836001600160401b0316901c9250808061230b90612e61565b9150506122e1565b604080518082019091526060815260006020820152825182111561233657600080fd5b835151600061234584836136a8565b9050856020015181111561236257612362866120a9836002613690565b85518051838201602001916000918085111561237c578482525b505050602086015b602086106123bc578051825261239b6020836136a8565b91506123a86020826136a8565b90506123b5602087613aba565b9550612384565b51815160001960208890036101000a0190811690199190911617905250849150509392505050565b604051806040016040528061240c604051806040016040528060608152602001600081525090565b8152602001600081525090565b805b811461242657600080fd5b50565b803561035681612419565b6000806040838503121561244a5761244a600080fd5b60006124568585612429565b925050602061246785828601612429565b9150509250929050565b805b82525050565b602081016103568284612471565b60005b838110156124a257818101518382015260200161248a565b50506000910152565b60006124b5825190565b8084526020840193506124cc818560208601612487565b601f01601f19169290920192915050565b60006104e383836124ab565b60006124f3825190565b8084526020840193508360208202850161250d8560200190565b8060005b85811015612542578484038952815161252a85826124dd565b94506020830160209a909a0199925050600101612511565b5091979650505050505050565b602080825281016104e381846124e9565b600073ffffffffffffffffffffffffffffffffffffffff8216610356565b61247381612560565b60208101610356828461257e565b634e487b7160e01b600052604160045260246000fd5b601f19601f83011681018181106001600160401b03821117156125d0576125d0612595565b6040525050565b60006125e260405190565b90506125ee82826125ab565b919050565b60006001600160401b0382111561260c5761260c612595565b601f19601f83011660200192915050565b82818337506000910152565b600061263c612637846125f3565b6125d7565b90508281526020810184848401111561265757612657600080fd5b6109a984828561261d565b600082601f83011261267657612676600080fd5b8135610352848260208601612629565b60006020828403121561269b5761269b600080fd5b81356001600160401b038111156126b4576126b4600080fd5b61035284828501612662565b6001600160401b038116612473565b805160408301906126e084826126c0565b5060208201516115f360208501826126c0565b60006126ff83836126cf565b505060400190565b6000612711825190565b80845260209384019383018060005b838110156120c657815161273488826126f3565b975060208301925050600101612720565b602080825281016104e38184612707565b6001600160401b03811661241b565b803561035681612756565b60006001600160401b0382111561278957612789612595565b5060209081020190565b60006127a161263784612770565b838152905060208082019084028301858111156127c0576127c0600080fd5b835b818110156127e457806127d58882612429565b845250602092830192016127c2565b5050509392505050565b600082601f83011261280257612802600080fd5b8135610352848260208601612793565b60006040828403121561282757612827600080fd5b61283160406125d7565b9050600061283f8484612765565b82525060208201356001600160401b0381111561285e5761285e600080fd5b61286a848285016127ee565b60208301525092915050565b60008060006060848603121561288e5761288e600080fd5b83356001600160401b038111156128a7576128a7600080fd5b6128b386828701612812565b93505060206128c486828701612429565b92505060406128d586828701612429565b9150509250925092565b801515612473565b6020810161035682846128df565b60006040828403121561290a5761290a600080fd5b61291460406125d7565b905081356001600160401b0381111561292f5761292f600080fd5b61293b84828501612812565b82525060208201356001600160401b0381111561295a5761295a600080fd5b61286a84828501612812565b60006040828403121561297b5761297b600080fd5b61298560406125d7565b905081356001600160401b038111156129a0576129a0600080fd5b6129ac84828501612662565b825250602061286a84848301612765565b600080600080600060a086880312156129d8576129d8600080fd5b60006129e48888612429565b95505060206129f588828901612765565b9450506040612a0688828901612765565b93505060608601356001600160401b03811115612a2557612a25600080fd5b612a31888289016128f5565b92505060808601356001600160401b03811115612a5057612a50600080fd5b612a5c88828901612966565b9150509295509295909350565b8051604080845260009190840190612a8182826124ab565b91505060208301516109a960208601826126c0565b602080825281016104e38184612a69565b60008060408385031215612abd57612abd600080fd5b82356001600160401b03811115612ad657612ad6600080fd5b612ae285828601612662565b925050602061246785828601612765565b61241b81612560565b803561035681612af3565b600080600060608486031215612b1f57612b1f600080fd5b83356001600160401b03811115612b3857612b38600080fd5b612b4486828701612662565b9350506020612b5586828701612429565b92505060406128d586828701612afc565b60008060408385031215612b7c57612b7c600080fd5b82356001600160401b03811115612b9557612b95600080fd5b612ba1858286016128f5565b92505060208301356001600160401b03811115612bc057612bc0600080fd5b61246785828601612966565b60008060408385031215612be257612be2600080fd5b82356001600160401b03811115612bfb57612bfb600080fd5b61245685828601612812565b6fffffffffffffffffffffffffffffffff19811661241b565b803561035681612c07565b600060808284031215612c4057612c40600080fd5b612c4a60806125d7565b90506000612c588484612429565b8252506020612c6984848301612765565b6020830152506040612c7d84828501612765565b6040830152506060612c9184828501612c20565b60608301525092915050565b600060808284031215612cb257612cb2600080fd5b60006103528484612c2b565b602080825281016104e381846124ab565b6fffffffffffffffffffffffffffffffff198116612473565b602081016103568284612ccf565b600080600060608486031215612d0e57612d0e600080fd5b6000612d1a8686612765565b93505060208401356001600160401b03811115612d3957612d39600080fd5b612d45868287016128f5565b92505060408401356001600160401b03811115612d6457612d64600080fd5b6128d586828701612966565b80612473565b90565b6000612d858285612d70565b602082019150612d958284612d70565b5060200192915050565b6000612da9825190565b612db7818560208601612487565b9290920192915050565b60006104e38284612d9f565b805161035681612419565b600060208284031215612ded57612ded600080fd5b60006103528484612dcd565b634e487b7160e01b600052602260045260246000fd5b600281046001821680612e2357607f821691505b60208210810361043357610433612df9565b634e487b7160e01b600052603260045260246000fd5b634e487b7160e01b600052601160045260246000fd5b60006000198203612e7457612e74612e4b565b5060010190565b601d81526000602082017f44656c74612e636f6d706c6574653a20696e76616c6964207478206964000000815291505b5060200190565b6020808252810161035681612e7b565b6000612ece8383612471565b505060200190565b6000612ee0825190565b80845260209384019383018060005b838110156120c6578151612f038882612ec2565b975060208301925050600101612eef565b80516000906040840190612f2885826126c0565b50602083015184820360208601526107f88282612ed6565b8051604080845260009190840190612f588282612f14565b915050602083015184820360208601526107f88282612f14565b60408082528101612f838185612f40565b9050818103602083015261116c8184612a69565b6000612fa5612637846125f3565b905082815260208101848484011115612fc057612fc0600080fd5b6109a9848285612487565b600082601f830112612fdf57612fdf600080fd5b8151610352848260208601612f97565b805161035681612756565b60006040828403121561300f5761300f600080fd5b61301960406125d7565b82519091506001600160401b0381111561303557613035600080fd5b61304184828501612fcb565b825250602061286a84848301612fef565b60006020828403121561306757613067600080fd5b81516001600160401b0381111561308057613080600080fd5b61035284828501612ffa565b6000604082840312156130a1576130a1600080fd5b6130ab60406125d7565b905060006130418484612fef565b60006130c761263784612770565b838152905060208101604084028301858111156130e6576130e6600080fd5b835b818110156127e457806130fb888261308c565b8452506020909201916040016130e8565b600082601f83011261312057613120600080fd5b81516103528482602086016130b9565b60006020828403121561314557613145600080fd5b81516001600160401b0381111561315e5761315e600080fd5b6103528482850161310c565b6001600160401b0391821691908116908282039081111561035657610356612e4b565b6000610356612d768381565b6131a28361318d565b81546008840282811b60001990911b908116901990911617825550505050565b6000611cfe818484613199565b818110156118b7576131e26000826131c2565b6001016131cf565b601f821115611cfe576000818152602090206020601f850104810160208510156132115750805b6115156020601f8601048301826131cf565b81516001600160401b0381111561323c5761323c612595565b6132468254612e0f565b6132518282856131ea565b6020601f831160018114613285576000841561326d5750858201515b600019600886021c19811660028602178655506132de565b600085815260208120601f198616915b828110156132b55788850151825560209485019460019092019101613295565b868310156132d15784890151600019601f89166008021c191682555b6001600288020188555050505b505050505050565b608080825281016132f781876124ab565b90506133066020830186612471565b6133136040830185612471565b6107f8606083018461257e565b603681526000602082017f53697a65206f662070696563652070726f76696465642062792076657269666981527f6572206973206e6f7420706f776572206f662074776f00000000000000000000602082015291505b5060400190565b6020808252810161035681613320565b601681526000602082017f617373756d656453697a655061206f766572666c6f770000000000000000000081529150612eab565b602080825281016103568161338d565b60006001600160401b03821691506001600160401b03831692508183026001600160401b0381165b915080821461131157611311612e4b565b602981526000602082017f61676772656761746f722773206461746120636f6d6d69746d656e747320646f81527f6e2774206d61746368000000000000000000000000000000000000000000000060208201529150613376565b602080825281016103568161340a565b600060ff8216915060ff8316925081830260ff81166133f9565b601981526000602082017f617373756d656453697a655061753634206f766572666c6f770000000000000081529150612eab565b602080825281016103568161348e565b602481526000602082017f61676772656761746f72277320646174612073697a6520646f65736e2774206d81527f617463680000000000000000000000000000000000000000000000000000000060208201529150613376565b60208082528101610356816134d2565b60006020828403121561355157613551600080fd5b81516001600160401b0381111561356a5761356a600080fd5b61035284828501612fcb565b603a81526000602082017f6d65726b6c6570726f6f6673207769746820646570746873206772656174657281527f207468616e20363320617265206e6f7420737570706f7274656400000000000060208201529150613376565b6020808252810161035681613576565b602481526000602082017f696e6465782067726561746572207468616e207769647468206f66207468652081527f747265650000000000000000000000000000000000000000000000000000000060208201529150613376565b60208082528101610356816135e0565b6001600160401b0316600067fffffffffffffffe198201612e7457612e74612e4b565b6001600160401b0391821691908116908282019081111561035657610356612e4b565b81810280821583820485141761131157611311612e4b565b8082018082111561035657610356612e4b565b60ff91821691908116908282019081111561035657610356612e4b565b634e487b7160e01b600052601260045260246000fd5b601481526000602082017f696e6465784f6666736574206f766572666c6f7700000000000000000000000081529150612eab565b60208082528101610356816136ee565b601d81526000602082017f696e64657820656e7472792061742077726f6e6720706f736974696f6e00000081529150612eab565b6020808252810161035681613732565b601281526000602082017f4465616c206973207465726d696e61746564000000000000000000000000000081529150612eab565b6020808252810161035681613776565b601581526000602082017f4465616c206973206e6f7420616374697661746564000000000000000000000081529150612eab565b60208082528101610356816137ba565b601881526000602082017f4465616c20636f6d6d4420646f65736e2774206d61746368000000000000000081529150612eab565b60208082528101610356816137fe565b601781526000602082017f4465616c2073697a6520646f65736e2774206d6174636800000000000000000081529150612eab565b6020808252810161035681613842565b604081016138948285612471565b6104e36020830184612471565b60006001600160401b038216610356565b612473816138a1565b60c081016138c982896126c0565b6138d66020830188612471565b6138e360408301876126c0565b6138f060608301866126c0565b818103608083015261390281856124ab565b905061391160a08301846138b2565b979650505050505050565b634e487b7160e01b600052600160045260246000fd5b600c81526000602082017f496e76616c69642043424f52000000000000000000000000000000000000000081529150612eab565b6020808252810161035681613932565b60008060006060848603121561398e5761398e600080fd5b600061399a8686612dcd565b93505060206139ab86828701612fef565b92505060408401516001600160401b038111156139ca576139ca600080fd5b6128d586828701612fcb565b6020810161035682846126c0565b601f81526000602082017f696e76616c6964206d616a20286578706563746564204d616a4172726179290081529150612eab565b60208082528101610356816139e4565b603581526000602082017f696e76616c6964206d616a20286578706563746564204d616a5369676e65644981527f6e74206f72204d616a556e7369676e6564496e7429000000000000000000000060208201529150613376565b6020808252810161035681613a28565b600082613aa157613aa16136d8565b500490565b600082613ab557613ab56136d8565b500690565b8181038181111561035657610356612e4b565b602581526000602082017f63616e6e6f742068616e646c652068656164657273207769746820657874726181527f203e20323700000000000000000000000000000000000000000000000000000060208201529150613376565b6020808252810161035681613acd565b600c81526000602082017f696e76616c69642063626f72000000000000000000000000000000000000000081529150612eab565b6020808252810161035681613b37565b808201600082128015848312908116901591909116171561035657610356612e4b565b602e81526000602082017f696e76616c6964206d616a20286578706563746564204d616a546167206f722081527f4d616a42797465537472696e672900000000000000000000000000000000000060208201529150613376565b6020808252810161035681613b9e565b602581526000602082017f696e76616c6964206d616a20286578706563746564204d616a556e7369676e6581527f64496e742900000000000000000000000000000000000000000000000000000060208201529150613376565b6020808252810161035681613c08565b80825b6001851115613cb157808604811115613c9057613c90612e4b565b6001851615613c9e57908102905b8002613caa8560011c90565b9450613c75565b94509492505050565b600082613cc9575060016104e3565b81613cd6575060006104e3565b8160018114613cec5760028114613cf657613d23565b60019150506104e3565b60ff841115613d0757613d07612e4b565b8360020a915084821115613d1d57613d1d612e4b565b506104e3565b5060208310610133831016604e8410600b8410161715613d56575081810a83811115613d5157613d51612e4b565b6104e3565b613d638484846001613c72565b92509050818404811115613d7957613d79612e4b565b0292915050565b60006104e36000198484613cba565b601481526000602082017f736c6963696e67206f7574206f662072616e676500000000000000000000000081529150612eab565b6020808252810161035681613d8f56fea264697066735822122097145ee9e3ae0e17fab1a0940839c2b5e1d3ce8ef089c1f247f05b813275337264736f6c63430008110033",
    "linkReferences": {
        "contracts/data-segment/Cid.sol": {
            "Cid": [
                {
                    "length": 20,
                    "start": 2756
                },
                {
                    "length": 20,
                    "start": 3282
                }
            ]
        }
    },
    "deployedLinkReferences": {
        "contracts/data-segment/Cid.sol": {
            "Cid": [
                {
                    "length": 20,
                    "start": 2702
                },
                {
                    "length": 20,
                    "start": 3228
                }
            ]
        }
    }
}